{
	"data": {
		"bytecode": {
			"linkReferences": {},
			"object": "608060405234801561001057600080fd5b5061355e806100206000396000f3fe608060405234801561001057600080fd5b50600436106100b45760003560e01c80637eb583cd116100715780637eb583cd146101915780638f3aee62146101ad578063a89e3edf146101de578063e19aafb61461020e578063e86288431461022a578063fb62ffd014610246576100b4565b806305f2e76d146100b95780631d2324bd146100eb5780632b736e931461010757806337e723ee1461012357806343dea4091461013f578063513999d414610175575b600080fd5b6100d360048036038101906100ce91906125f8565b610276565b6040516100e2939291906126e3565b60405180910390f35b61010560048036038101906101009190612873565b6103d1565b005b610121600480360381019061011c9190612905565b610837565b005b61013d60048036038101906101389190612945565b610a79565b005b61015960048036038101906101549190612945565b610c93565b60405161016c97969594939291906129e7565b60405180910390f35b61018f600480360381019061018a9190612aae565b610df1565b005b6101ab60048036038101906101a69190612905565b61119b565b005b6101c760048036038101906101c291906125f8565b6113f7565b6040516101d5929190612b01565b60405180910390f35b6101f860048036038101906101f391906125f8565b61153c565b6040516102059190612c39565b60405180910390f35b61022860048036038101906102239190612945565b61171e565b005b610244600480360381019061023f9190612c5b565b611945565b005b610260600480360381019061025b9190612945565b611c27565b60405161026d9190612cca565b60405180910390f35b600080600084806bffffffffffffffffffffffff1916600080836bffffffffffffffffffffffff19166bffffffffffffffffffffffff1916815260200190815260200160002060000160009054906101000a900460601b6bffffffffffffffffffffffff19161461031c576040517f08c379a000000000000000000000000000000000000000000000000000000000815260040161031390612d68565b60405180910390fd5b6000806000886bffffffffffffffffffffffff19166bffffffffffffffffffffffff19168152602001908152602001600020905060008160050160020160008873ffffffffffffffffffffffffffffffffffffffff1673ffffffffffffffffffffffffffffffffffffffff16815260200190815260200160002090508060000160009054906101000a900460ff1681600101548260020160009054906101000a900460ff169550955095505050509250925092565b81806bffffffffffffffffffffffff1916600080836bffffffffffffffffffffffff19166bffffffffffffffffffffffff1916815260200190815260200160002060000160009054906101000a900460601b6bffffffffffffffffffffffff191614610472576040517f08c379a000000000000000000000000000000000000000000000000000000000815260040161046990612d68565b60405180910390fd5b826000806000836bffffffffffffffffffffffff19166bffffffffffffffffffffffff19168152602001908152602001600020905061053c338260050160000180548060200260200160405190810160405280929190818152602001828054801561053257602002820191906000526020600020905b8160009054906101000a900473ffffffffffffffffffffffffffffffffffffffff1673ffffffffffffffffffffffffffffffffffffffff16815260200190600101908083116104e8575b5050505050612154565b61057b576040517f08c379a000000000000000000000000000000000000000000000000000000000815260040161057290612dd4565b60405180910390fd5b846000806000836bffffffffffffffffffffffff19166bffffffffffffffffffffffff19168152602001908152602001600020905060008160050160020160003373ffffffffffffffffffffffffffffffffffffffff1673ffffffffffffffffffffffffffffffffffffffff16815260200190815260200160002090508060020160009054906101000a900460ff16801561064b57506001600281111561062557610624612638565b5b8160000160009054906101000a900460ff16600281111561064957610648612638565b5b145b61068a576040517f08c379a000000000000000000000000000000000000000000000000000000000815260040161068190612e66565b60405180910390fd5b60008060008a6bffffffffffffffffffffffff19166bffffffffffffffffffffffff19168152602001908152602001600020905060005b88518110156107825760008982815181106106df576106de612e86565b5b6020026020010151905082600801600101819080600181540180825580915050600190039060005260206000200160009091909190916101000a81548173ffffffffffffffffffffffffffffffffffffffff021916908373ffffffffffffffffffffffffffffffffffffffff16021790555082600801600001600081548092919061076990612ee4565b919050555050808061077a90612ee4565b9150506106c1565b5060008160050160020160003373ffffffffffffffffffffffffffffffffffffffff1673ffffffffffffffffffffffffffffffffffffffff16815260200190815260200160002060020160006101000a81548160ff021916908315150217905550886bffffffffffffffffffffffff19167f7f665ea4964fbbd83c015325c3050f8560d1743f429f4a8f96cbe0feb37eb9e28942604051610824929190612fdb565b60405180910390a2505050505050505050565b81600480600581111561084d5761084c612638565b5b600080846bffffffffffffffffffffffff19166bffffffffffffffffffffffff1916815260200190815260200160002060040160009054906101000a900460ff1660058111156108a05761089f612638565b5b146108e0576040517f08c379a00000000000000000000000000000000000000000000000000000000081526004016108d790613057565b60405180910390fd5b6000806000866bffffffffffffffffffffffff19166bffffffffffffffffffffffff191681526020019081526020016000209050600081600b0160003373ffffffffffffffffffffffffffffffffffffffff1673ffffffffffffffffffffffffffffffffffffffff16815260200190815260200160002090508060405180606001604052808781526020014281526020013373ffffffffffffffffffffffffffffffffffffffff168152509080600181540180825580915050600190039060005260206000209060030201600090919091909150600082015181600001556020820151816001015560408201518160020160006101000a81548173ffffffffffffffffffffffffffffffffffffffff021916908373ffffffffffffffffffffffffffffffffffffffff16021790555050503373ffffffffffffffffffffffffffffffffffffffff16866bffffffffffffffffffffffff19167f6250f9232df6557b5cfbe4ce36d20d61e3f5d9d8e88bb9baae96b80c5349770a8742604051610a69929190613077565b60405180910390a3505050505050565b806002806005811115610a8f57610a8e612638565b5b600080846bffffffffffffffffffffffff19166bffffffffffffffffffffffff1916815260200190815260200160002060040160009054906101000a900460ff166005811115610ae257610ae1612638565b5b14610b22576040517f08c379a0000000000000000000000000000000000000000000000000000000008152600401610b1990613057565b60405180910390fd5b823373ffffffffffffffffffffffffffffffffffffffff16600080836bffffffffffffffffffffffff19166bffffffffffffffffffffffff1916815260200190815260200160002060020160009054906101000a900473ffffffffffffffffffffffffffffffffffffffff1673ffffffffffffffffffffffffffffffffffffffff1614610be4576040517f08c379a0000000000000000000000000000000000000000000000000000000008152600401610bdb90613112565b60405180910390fd5b6000806000866bffffffffffffffffffffffff19166bffffffffffffffffffffffff19168152602001908152602001600020905060048160040160006101000a81548160ff02191690836005811115610c4057610c3f612638565b5b0217905550846bffffffffffffffffffffffff19167fa7c0a847451b56e5361229444f6894eb07712353796423821f369e0aa6f54eb442604051610c849190613132565b60405180910390a25050505050565b600080600080600080600087806bffffffffffffffffffffffff1916600080836bffffffffffffffffffffffff19166bffffffffffffffffffffffff1916815260200190815260200160002060000160009054906101000a900460601b6bffffffffffffffffffffffff191614610d3f576040517f08c379a0000000000000000000000000000000000000000000000000000000008152600401610d3690612d68565b60405180910390fd5b60008060008b6bffffffffffffffffffffffff19166bffffffffffffffffffffffff1916815260200190815260200160002090508060000160009054906101000a900460601b8160020160009054906101000a900473ffffffffffffffffffffffffffffffffffffffff16826003015483600101548460040160009054906101000a900460ff168560050160010154866008016000015498509850985098509850985098505050919395979092949650565b826000806000836bffffffffffffffffffffffff19166bffffffffffffffffffffffff191681526020019081526020016000209050610ebb3382600501600001805480602002602001604051908101604052809291908181526020018280548015610eb157602002820191906000526020600020905b8160009054906101000a900473ffffffffffffffffffffffffffffffffffffffff1673ffffffffffffffffffffffffffffffffffffffff1681526020019060010190808311610e67575b5050505050612154565b80610f575750610f563382600801600101805480602002602001604051908101604052809291908181526020018280548015610f4c57602002820191906000526020600020905b8160009054906101000a900473ffffffffffffffffffffffffffffffffffffffff1673ffffffffffffffffffffffffffffffffffffffff1681526020019060010190808311610f02575b5050505050612154565b5b610f96576040517f08c379a0000000000000000000000000000000000000000000000000000000008152600401610f8d90613199565b60405180910390fd5b846000806000836bffffffffffffffffffffffff19166bffffffffffffffffffffffff19168152602001908152602001600020905042816003015411611011576040517f08c379a00000000000000000000000000000000000000000000000000000000081526004016110089061322b565b60405180910390fd5b6000806000896bffffffffffffffffffffffff19166bffffffffffffffffffffffff1916815260200190815260200160002090506110da33826005016000018054806020026020016040519081016040528092919081815260200182805480156110d057602002820191906000526020600020905b8160009054906101000a900473ffffffffffffffffffffffffffffffffffffffff1673ffffffffffffffffffffffffffffffffffffffff1681526020019060010190808311611086575b5050505050612154565b156110eb576110ea8888886121db565b5b611180338260080160010180548060200260200160405190810160405280929190818152602001828054801561117657602002820191906000526020600020905b8160009054906101000a900473ffffffffffffffffffffffffffffffffffffffff1673ffffffffffffffffffffffffffffffffffffffff168152602001906001019080831161112c575b5050505050612154565b1561119157611190888888612325565b5b5050505050505050565b81806bffffffffffffffffffffffff1916600080836bffffffffffffffffffffffff19166bffffffffffffffffffffffff1916815260200190815260200160002060000160009054906101000a900460601b6bffffffffffffffffffffffff19161461123c576040517f08c379a000000000000000000000000000000000000000000000000000000000815260040161123390612d68565b60405180910390fd5b82600080600581111561125257611251612638565b5b600080846bffffffffffffffffffffffff19166bffffffffffffffffffffffff1916815260200190815260200160002060040160009054906101000a900460ff1660058111156112a5576112a4612638565b5b146112e5576040517f08c379a00000000000000000000000000000000000000000000000000000000081526004016112dc90613057565b60405180910390fd5b428411611327576040517f08c379a000000000000000000000000000000000000000000000000000000000815260040161131e90613297565b60405180910390fd5b6000806000876bffffffffffffffffffffffff19166bffffffffffffffffffffffff19168152602001908152602001600020905084816003018190555060018160040160006101000a81548160ff0219169083600581111561138c5761138b612638565b5b02179055503373ffffffffffffffffffffffffffffffffffffffff16866bffffffffffffffffffffffff19167f15ee95df39513bd16d1a1cc94bfc442f0e6d602f9470d85ce01dd6054de27c90426040516113e79190613132565b60405180910390a3505050505050565b60008083806bffffffffffffffffffffffff1916600080836bffffffffffffffffffffffff19166bffffffffffffffffffffffff1916815260200190815260200160002060000160009054906101000a900460601b6bffffffffffffffffffffffff19161461149b576040517f08c379a000000000000000000000000000000000000000000000000000000000815260040161149290612d68565b60405180910390fd5b6000806000876bffffffffffffffffffffffff19166bffffffffffffffffffffffff19168152602001908152602001600020905060008160080160020160008773ffffffffffffffffffffffffffffffffffffffff1673ffffffffffffffffffffffffffffffffffffffff16815260200190815260200160002090508060000160009054906101000a900460ff168160010154945094505050509250929050565b606082806bffffffffffffffffffffffff1916600080836bffffffffffffffffffffffff19166bffffffffffffffffffffffff1916815260200190815260200160002060000160009054906101000a900460601b6bffffffffffffffffffffffff1916146115df576040517f08c379a00000000000000000000000000000000000000000000000000000000081526004016115d690612d68565b60405180910390fd5b6000806000866bffffffffffffffffffffffff19166bffffffffffffffffffffffff19168152602001908152602001600020905080600b0160008573ffffffffffffffffffffffffffffffffffffffff1673ffffffffffffffffffffffffffffffffffffffff168152602001908152602001600020805480602002602001604051908101604052809291908181526020016000905b82821015611710578382906000526020600020906003020160405180606001604052908160008201548152602001600182015481526020016002820160009054906101000a900473ffffffffffffffffffffffffffffffffffffffff1673ffffffffffffffffffffffffffffffffffffffff1673ffffffffffffffffffffffffffffffffffffffff168152505081526020019060010190611674565b505050509250505092915050565b803373ffffffffffffffffffffffffffffffffffffffff16600080836bffffffffffffffffffffffff19166bffffffffffffffffffffffff1916815260200190815260200160002060020160009054906101000a900473ffffffffffffffffffffffffffffffffffffffff1673ffffffffffffffffffffffffffffffffffffffff16146117e0576040517f08c379a00000000000000000000000000000000000000000000000000000000081526004016117d790613112565b60405180910390fd5b6000806000846bffffffffffffffffffffffff19166bffffffffffffffffffffffff1916815260200190815260200160002090506002600581111561182857611827612638565b5b8160040160009054906101000a900460ff16600581111561184c5761184b612638565b5b148061188d57506004600581111561186757611866612638565b5b8160040160009054906101000a900460ff16600581111561188b5761188a612638565b5b145b6118cc576040517f08c379a00000000000000000000000000000000000000000000000000000000081526004016118c390613303565b60405180910390fd5b60058160040160006101000a81548160ff021916908360058111156118f4576118f3612638565b5b0217905550826bffffffffffffffffffffffff19167ff1a507b7e2361a36316bcc7baa18c556bed4f652408fc58a2a5f1b6502384b1b426040516119389190613132565b60405180910390a2505050565b82600060601b600080836bffffffffffffffffffffffff19166bffffffffffffffffffffffff1916815260200190815260200160002060000160009054906101000a900460601b6bffffffffffffffffffffffff1916146119db576040517f08c379a00000000000000000000000000000000000000000000000000000000081526004016119d29061336f565b60405180910390fd5b6000825111611a1f576040517f08c379a0000000000000000000000000000000000000000000000000000000008152600401611a1690613401565b60405180910390fd5b6000806000866bffffffffffffffffffffffff19166bffffffffffffffffffffffff191681526020019081526020016000209050848160000160006101000a81548173ffffffffffffffffffffffffffffffffffffffff021916908360601c0217905550338160020160006101000a81548173ffffffffffffffffffffffffffffffffffffffff021916908373ffffffffffffffffffffffffffffffffffffffff16021790555083816001018190555060008160040160006101000a81548160ff02191690836005811115611af757611af6612638565b5b021790555082816005016000019080519060200190611b17929190612487565b508251816005016001018190555060005b8351811015611bbe576001826005016002016000868481518110611b4f57611b4e612e86565b5b602002602001015173ffffffffffffffffffffffffffffffffffffffff1673ffffffffffffffffffffffffffffffffffffffff16815260200190815260200160002060020160006101000a81548160ff0219169083151502179055508080611bb690612ee4565b915050611b28565b50423373ffffffffffffffffffffffffffffffffffffffff16866bffffffffffffffffffffffff19167f9d7bd05ce6d23f57a8deffaddfd1a3332c176102a621db7944e90a9763b7e0d88787604051611c18929190613421565b60405180910390a45050505050565b600081806bffffffffffffffffffffffff1916600080836bffffffffffffffffffffffff19166bffffffffffffffffffffffff1916815260200190815260200160002060000160009054906101000a900460601b6bffffffffffffffffffffffff191614611cca576040517f08c379a0000000000000000000000000000000000000000000000000000000008152600401611cc190612d68565b60405180910390fd5b826000806000836bffffffffffffffffffffffff19166bffffffffffffffffffffffff1916815260200190815260200160002090504281600301541115611d46576040517f08c379a0000000000000000000000000000000000000000000000000000000008152600401611d3d906134c3565b60405180910390fd5b6000806000876bffffffffffffffffffffffff19166bffffffffffffffffffffffff19168152602001908152602001600020905060005b8160050160000180549050811015611ec5576000826005016000018281548110611daa57611da9612e86565b5b9060005260206000200160009054906101000a900473ffffffffffffffffffffffffffffffffffffffff1690508260050160020160008273ffffffffffffffffffffffffffffffffffffffff1673ffffffffffffffffffffffffffffffffffffffff16815260200190815260200160002060020160009054906101000a900460ff1615611eb15760038360040160006101000a81548160ff02191690836005811115611e5957611e58612638565b5b0217905550876bffffffffffffffffffffffff19167f8830263dc9eb7a76282516d1e28ff3c44bd7f8816df11f0fc373b2d5916f676a42604051611e9d9190613132565b60405180910390a26000965050505061214c565b508080611ebd90612ee4565b915050611d7d565b5060006001905060005b826008016001018054905081101561204b576000836008016001018281548110611efc57611efb612e86565b5b9060005260206000200160009054906101000a900473ffffffffffffffffffffffffffffffffffffffff16905060008460080160020160008373ffffffffffffffffffffffffffffffffffffffff1673ffffffffffffffffffffffffffffffffffffffff1681526020019081526020016000206040518060400160405290816000820160009054906101000a900460ff166002811115611f9f57611f9e612638565b5b6002811115611fb157611fb0612638565b5b8152602001600182015481525050905060006002811115611fd557611fd4612638565b5b81600001516002811115611fec57611feb612638565b5b03611ffc5760009350505061204b565b60028081111561200f5761200e612638565b5b8160000151600281111561202657612025612638565b5b036120365760009350505061204b565b5050808061204390612ee4565b915050611ecf565b5080156120d15760028260040160006101000a81548160ff0219169083600581111561207a57612079612638565b5b0217905550866bffffffffffffffffffffffff19167f4c77c074636916ba616fc170d1cfd236a80aa7fd95cc2c3e701b8ae835c84c61426040516120be9190613132565b60405180910390a260019550505061214c565b60038260040160006101000a81548160ff021916908360058111156120f9576120f8612638565b5b0217905550866bffffffffffffffffffffffff19167f8830263dc9eb7a76282516d1e28ff3c44bd7f8816df11f0fc373b2d5916f676a4260405161213d9190613132565b60405180910390a26000955050505b505050919050565b600080600090505b82518110156121cf578373ffffffffffffffffffffffffffffffffffffffff1683828151811061218f5761218e612e86565b5b602002602001015173ffffffffffffffffffffffffffffffffffffffff16036121bc5760019150506121d5565b80806121c790612ee4565b91505061215c565b50600090505b92915050565b6000806000856bffffffffffffffffffffffff19166bffffffffffffffffffffffff1916815260200190815260200160002090506122188361246f565b8160050160020160003373ffffffffffffffffffffffffffffffffffffffff1673ffffffffffffffffffffffffffffffffffffffff16815260200190815260200160002060000160006101000a81548160ff0219169083600281111561228157612280612638565b5b0217905550818160050160020160003373ffffffffffffffffffffffffffffffffffffffff1673ffffffffffffffffffffffffffffffffffffffff16815260200190815260200160002060010181905550836bffffffffffffffffffffffff19167f3bf7725866e22778bcd42055f5c7f4fdb0ec72e5d2b1bff4b578342d1d3088b73385854260405161231794939291906134e3565b60405180910390a250505050565b6000806000856bffffffffffffffffffffffff19166bffffffffffffffffffffffff1916815260200190815260200160002090506123628361246f565b8160080160020160003373ffffffffffffffffffffffffffffffffffffffff1673ffffffffffffffffffffffffffffffffffffffff16815260200190815260200160002060000160006101000a81548160ff021916908360028111156123cb576123ca612638565b5b0217905550818160080160020160003373ffffffffffffffffffffffffffffffffffffffff1673ffffffffffffffffffffffffffffffffffffffff16815260200190815260200160002060010181905550836bffffffffffffffffffffffff19167f828c749e75f8c8f1d13e798fc61d5900900240cc3148c060eee94212ec78f16b3385854260405161246194939291906134e3565b60405180910390a250505050565b60008161247d576002612480565b60015b9050919050565b828054828255906000526020600020908101928215612500579160200282015b828111156124ff5782518260006101000a81548173ffffffffffffffffffffffffffffffffffffffff021916908373ffffffffffffffffffffffffffffffffffffffff160217905550916020019190600101906124a7565b5b50905061250d9190612511565b5090565b5b8082111561252a576000816000905550600101612512565b5090565b6000604051905090565b600080fd5b600080fd5b60007fffffffffffffffffffffffffffffffffffffffff00000000000000000000000082169050919050565b61257781612542565b811461258257600080fd5b50565b6000813590506125948161256e565b92915050565b600073ffffffffffffffffffffffffffffffffffffffff82169050919050565b60006125c58261259a565b9050919050565b6125d5816125ba565b81146125e057600080fd5b50565b6000813590506125f2816125cc565b92915050565b6000806040838503121561260f5761260e612538565b5b600061261d85828601612585565b925050602061262e858286016125e3565b9150509250929050565b7f4e487b7100000000000000000000000000000000000000000000000000000000600052602160045260246000fd5b6003811061267857612677612638565b5b50565b600081905061268982612667565b919050565b60006126998261267b565b9050919050565b6126a98161268e565b82525050565b6000819050919050565b6126c2816126af565b82525050565b60008115159050919050565b6126dd816126c8565b82525050565b60006060820190506126f860008301866126a0565b61270560208301856126b9565b61271260408301846126d4565b949350505050565b600080fd5b6000601f19601f8301169050919050565b7f4e487b7100000000000000000000000000000000000000000000000000000000600052604160045260246000fd5b6127688261271f565b810181811067ffffffffffffffff8211171561278757612786612730565b5b80604052505050565b600061279a61252e565b90506127a6828261275f565b919050565b600067ffffffffffffffff8211156127c6576127c5612730565b5b602082029050602081019050919050565b600080fd5b60006127ef6127ea846127ab565b612790565b90508083825260208201905060208402830185811115612812576128116127d7565b5b835b8181101561283b578061282788826125e3565b845260208401935050602081019050612814565b5050509392505050565b600082601f83011261285a5761285961271a565b5b813561286a8482602086016127dc565b91505092915050565b6000806040838503121561288a57612889612538565b5b600061289885828601612585565b925050602083013567ffffffffffffffff8111156128b9576128b861253d565b5b6128c585828601612845565b9150509250929050565b6000819050919050565b6128e2816128cf565b81146128ed57600080fd5b50565b6000813590506128ff816128d9565b92915050565b6000806040838503121561291c5761291b612538565b5b600061292a85828601612585565b925050602061293b858286016128f0565b9150509250929050565b60006020828403121561295b5761295a612538565b5b600061296984828501612585565b91505092915050565b61297b81612542565b82525050565b61298a816125ba565b82525050565b612999816128cf565b82525050565b600681106129b0576129af612638565b5b50565b60008190506129c18261299f565b919050565b60006129d1826129b3565b9050919050565b6129e1816129c6565b82525050565b600060e0820190506129fc600083018a612972565b612a096020830189612981565b612a166040830188612990565b612a2360608301876126b9565b612a3060808301866129d8565b612a3d60a0830185612990565b612a4a60c0830184612990565b98975050505050505050565b612a5f816126c8565b8114612a6a57600080fd5b50565b600081359050612a7c81612a56565b92915050565b612a8b816126af565b8114612a9657600080fd5b50565b600081359050612aa881612a82565b92915050565b600080600060608486031215612ac757612ac6612538565b5b6000612ad586828701612585565b9350506020612ae686828701612a6d565b9250506040612af786828701612a99565b9150509250925092565b6000604082019050612b1660008301856126a0565b612b2360208301846126b9565b9392505050565b600081519050919050565b600082825260208201905092915050565b6000819050602082019050919050565b612b5f816128cf565b82525050565b612b6e816125ba565b82525050565b606082016000820151612b8a6000850182612b56565b506020820151612b9d6020850182612b56565b506040820151612bb06040850182612b65565b50505050565b6000612bc28383612b74565b60608301905092915050565b6000602082019050919050565b6000612be682612b2a565b612bf08185612b35565b9350612bfb83612b46565b8060005b83811015612c2c578151612c138882612bb6565b9750612c1e83612bce565b925050600181019050612bff565b5085935050505092915050565b60006020820190508181036000830152612c538184612bdb565b905092915050565b600080600060608486031215612c7457612c73612538565b5b6000612c8286828701612585565b9350506020612c9386828701612a99565b925050604084013567ffffffffffffffff811115612cb457612cb361253d565b5b612cc086828701612845565b9150509250925092565b6000602082019050612cdf60008301846126d4565b92915050565b600082825260208201905092915050565b7f44726166742077697468207468697320494420646f6573206e6f74206578697360008201527f7400000000000000000000000000000000000000000000000000000000000000602082015250565b6000612d52602183612ce5565b9150612d5d82612cf6565b604082019050919050565b60006020820190508181036000830152612d8181612d45565b9050919050565b7f596f75206d7573742062652061204c6576656c203120617070726f7665720000600082015250565b6000612dbe601e83612ce5565b9150612dc982612d88565b602082019050919050565b60006020820190508181036000830152612ded81612db1565b9050919050565b7f596f75206861766520617369676e6564206f7220596f7520686176656e27742060008201527f617070726f766564000000000000000000000000000000000000000000000000602082015250565b6000612e50602883612ce5565b9150612e5b82612df4565b604082019050919050565b60006020820190508181036000830152612e7f81612e43565b9050919050565b7f4e487b7100000000000000000000000000000000000000000000000000000000600052603260045260246000fd5b7f4e487b7100000000000000000000000000000000000000000000000000000000600052601160045260246000fd5b6000612eef826128cf565b91507fffffffffffffffffffffffffffffffffffffffffffffffffffffffffffffffff8203612f2157612f20612eb5565b5b600182019050919050565b600081519050919050565b600082825260208201905092915050565b6000819050602082019050919050565b6000612f648383612b65565b60208301905092915050565b6000602082019050919050565b6000612f8882612f2c565b612f928185612f37565b9350612f9d83612f48565b8060005b83811015612fce578151612fb58882612f58565b9750612fc083612f70565b925050600181019050612fa1565b5085935050505092915050565b60006040820190508181036000830152612ff58185612f7d565b90506130046020830184612990565b9392505050565b7f4472616674206d75737420626520696e20612077726f6e672073746174757300600082015250565b6000613041601f83612ce5565b915061304c8261300b565b602082019050919050565b6000602082019050818103600083015261307081613034565b9050919050565b600060408201905061308c6000830185612990565b6130996020830184612990565b9392505050565b7f4f6e6c7920746865206f776e65722063616e20706572666f726d20746869732060008201527f616374696f6e0000000000000000000000000000000000000000000000000000602082015250565b60006130fc602683612ce5565b9150613107826130a0565b604082019050919050565b6000602082019050818103600083015261312b816130ef565b9050919050565b60006020820190506131476000830184612990565b92915050565b7f596f75206d757374206265206120617070726f76657200000000000000000000600082015250565b6000613183601683612ce5565b915061318e8261314d565b602082019050919050565b600060208201905081810360008301526131b281613176565b9050919050565b7f447261667420697320616c726561647920706173742074686520646561646c6960008201527f6e65000000000000000000000000000000000000000000000000000000000000602082015250565b6000613215602283612ce5565b9150613220826131b9565b604082019050919050565b6000602082019050818103600083015261324481613208565b9050919050565b7f646561646c696e65446179206e6f742066697400000000000000000000000000600082015250565b6000613281601383612ce5565b915061328c8261324b565b602082019050919050565b600060208201905081810360008301526132b081613274565b9050919050565b7f43616e206e6f742066696e697368206472616674000000000000000000000000600082015250565b60006132ed601483612ce5565b91506132f8826132b7565b602082019050919050565b6000602082019050818103600083015261331c816132e0565b9050919050565b7f44726166742077697468207468697320494420646f6573206578697374000000600082015250565b6000613359601d83612ce5565b915061336482613323565b602082019050919050565b600060208201905081810360008301526133888161334c565b9050919050565b7f546865206d696e69756d204c656e677468206f66204c6576656c20312041707060008201527f726f76657273206d757374206265203100000000000000000000000000000000602082015250565b60006133eb603083612ce5565b91506133f68261338f565b604082019050919050565b6000602082019050818103600083015261341a816133de565b9050919050565b600060408201905061343660008301856126b9565b81810360208301526134488184612f7d565b90509392505050565b7f4472616674206973207374696c6c2077697468696e2074686520646561646c6960008201527f6e65000000000000000000000000000000000000000000000000000000000000602082015250565b60006134ad602283612ce5565b91506134b882613451565b604082019050919050565b600060208201905081810360008301526134dc816134a0565b9050919050565b60006080820190506134f86000830187612981565b61350560208301866126d4565b61351260408301856126b9565b61351f6060830184612990565b9594505050505056fea26469706673582212208feb51d809a6170c37c0a633de26d4186d17145c47b5370fc794a4eef7da816e64736f6c63430008120033",
			"opcodes": "PUSH1 0x80 PUSH1 0x40 MSTORE CALLVALUE DUP1 ISZERO PUSH2 0x10 JUMPI PUSH1 0x0 DUP1 REVERT JUMPDEST POP PUSH2 0x355E DUP1 PUSH2 0x20 PUSH1 0x0 CODECOPY PUSH1 0x0 RETURN INVALID PUSH1 0x80 PUSH1 0x40 MSTORE CALLVALUE DUP1 ISZERO PUSH2 0x10 JUMPI PUSH1 0x0 DUP1 REVERT JUMPDEST POP PUSH1 0x4 CALLDATASIZE LT PUSH2 0xB4 JUMPI PUSH1 0x0 CALLDATALOAD PUSH1 0xE0 SHR DUP1 PUSH4 0x7EB583CD GT PUSH2 0x71 JUMPI DUP1 PUSH4 0x7EB583CD EQ PUSH2 0x191 JUMPI DUP1 PUSH4 0x8F3AEE62 EQ PUSH2 0x1AD JUMPI DUP1 PUSH4 0xA89E3EDF EQ PUSH2 0x1DE JUMPI DUP1 PUSH4 0xE19AAFB6 EQ PUSH2 0x20E JUMPI DUP1 PUSH4 0xE8628843 EQ PUSH2 0x22A JUMPI DUP1 PUSH4 0xFB62FFD0 EQ PUSH2 0x246 JUMPI PUSH2 0xB4 JUMP JUMPDEST DUP1 PUSH4 0x5F2E76D EQ PUSH2 0xB9 JUMPI DUP1 PUSH4 0x1D2324BD EQ PUSH2 0xEB JUMPI DUP1 PUSH4 0x2B736E93 EQ PUSH2 0x107 JUMPI DUP1 PUSH4 0x37E723EE EQ PUSH2 0x123 JUMPI DUP1 PUSH4 0x43DEA409 EQ PUSH2 0x13F JUMPI DUP1 PUSH4 0x513999D4 EQ PUSH2 0x175 JUMPI JUMPDEST PUSH1 0x0 DUP1 REVERT JUMPDEST PUSH2 0xD3 PUSH1 0x4 DUP1 CALLDATASIZE SUB DUP2 ADD SWAP1 PUSH2 0xCE SWAP2 SWAP1 PUSH2 0x25F8 JUMP JUMPDEST PUSH2 0x276 JUMP JUMPDEST PUSH1 0x40 MLOAD PUSH2 0xE2 SWAP4 SWAP3 SWAP2 SWAP1 PUSH2 0x26E3 JUMP JUMPDEST PUSH1 0x40 MLOAD DUP1 SWAP2 SUB SWAP1 RETURN JUMPDEST PUSH2 0x105 PUSH1 0x4 DUP1 CALLDATASIZE SUB DUP2 ADD SWAP1 PUSH2 0x100 SWAP2 SWAP1 PUSH2 0x2873 JUMP JUMPDEST PUSH2 0x3D1 JUMP JUMPDEST STOP JUMPDEST PUSH2 0x121 PUSH1 0x4 DUP1 CALLDATASIZE SUB DUP2 ADD SWAP1 PUSH2 0x11C SWAP2 SWAP1 PUSH2 0x2905 JUMP JUMPDEST PUSH2 0x837 JUMP JUMPDEST STOP JUMPDEST PUSH2 0x13D PUSH1 0x4 DUP1 CALLDATASIZE SUB DUP2 ADD SWAP1 PUSH2 0x138 SWAP2 SWAP1 PUSH2 0x2945 JUMP JUMPDEST PUSH2 0xA79 JUMP JUMPDEST STOP JUMPDEST PUSH2 0x159 PUSH1 0x4 DUP1 CALLDATASIZE SUB DUP2 ADD SWAP1 PUSH2 0x154 SWAP2 SWAP1 PUSH2 0x2945 JUMP JUMPDEST PUSH2 0xC93 JUMP JUMPDEST PUSH1 0x40 MLOAD PUSH2 0x16C SWAP8 SWAP7 SWAP6 SWAP5 SWAP4 SWAP3 SWAP2 SWAP1 PUSH2 0x29E7 JUMP JUMPDEST PUSH1 0x40 MLOAD DUP1 SWAP2 SUB SWAP1 RETURN JUMPDEST PUSH2 0x18F PUSH1 0x4 DUP1 CALLDATASIZE SUB DUP2 ADD SWAP1 PUSH2 0x18A SWAP2 SWAP1 PUSH2 0x2AAE JUMP JUMPDEST PUSH2 0xDF1 JUMP JUMPDEST STOP JUMPDEST PUSH2 0x1AB PUSH1 0x4 DUP1 CALLDATASIZE SUB DUP2 ADD SWAP1 PUSH2 0x1A6 SWAP2 SWAP1 PUSH2 0x2905 JUMP JUMPDEST PUSH2 0x119B JUMP JUMPDEST STOP JUMPDEST PUSH2 0x1C7 PUSH1 0x4 DUP1 CALLDATASIZE SUB DUP2 ADD SWAP1 PUSH2 0x1C2 SWAP2 SWAP1 PUSH2 0x25F8 JUMP JUMPDEST PUSH2 0x13F7 JUMP JUMPDEST PUSH1 0x40 MLOAD PUSH2 0x1D5 SWAP3 SWAP2 SWAP1 PUSH2 0x2B01 JUMP JUMPDEST PUSH1 0x40 MLOAD DUP1 SWAP2 SUB SWAP1 RETURN JUMPDEST PUSH2 0x1F8 PUSH1 0x4 DUP1 CALLDATASIZE SUB DUP2 ADD SWAP1 PUSH2 0x1F3 SWAP2 SWAP1 PUSH2 0x25F8 JUMP JUMPDEST PUSH2 0x153C JUMP JUMPDEST PUSH1 0x40 MLOAD PUSH2 0x205 SWAP2 SWAP1 PUSH2 0x2C39 JUMP JUMPDEST PUSH1 0x40 MLOAD DUP1 SWAP2 SUB SWAP1 RETURN JUMPDEST PUSH2 0x228 PUSH1 0x4 DUP1 CALLDATASIZE SUB DUP2 ADD SWAP1 PUSH2 0x223 SWAP2 SWAP1 PUSH2 0x2945 JUMP JUMPDEST PUSH2 0x171E JUMP JUMPDEST STOP JUMPDEST PUSH2 0x244 PUSH1 0x4 DUP1 CALLDATASIZE SUB DUP2 ADD SWAP1 PUSH2 0x23F SWAP2 SWAP1 PUSH2 0x2C5B JUMP JUMPDEST PUSH2 0x1945 JUMP JUMPDEST STOP JUMPDEST PUSH2 0x260 PUSH1 0x4 DUP1 CALLDATASIZE SUB DUP2 ADD SWAP1 PUSH2 0x25B SWAP2 SWAP1 PUSH2 0x2945 JUMP JUMPDEST PUSH2 0x1C27 JUMP JUMPDEST PUSH1 0x40 MLOAD PUSH2 0x26D SWAP2 SWAP1 PUSH2 0x2CCA JUMP JUMPDEST PUSH1 0x40 MLOAD DUP1 SWAP2 SUB SWAP1 RETURN JUMPDEST PUSH1 0x0 DUP1 PUSH1 0x0 DUP5 DUP1 PUSH12 0xFFFFFFFFFFFFFFFFFFFFFFFF NOT AND PUSH1 0x0 DUP1 DUP4 PUSH12 0xFFFFFFFFFFFFFFFFFFFFFFFF NOT AND PUSH12 0xFFFFFFFFFFFFFFFFFFFFFFFF NOT AND DUP2 MSTORE PUSH1 0x20 ADD SWAP1 DUP2 MSTORE PUSH1 0x20 ADD PUSH1 0x0 KECCAK256 PUSH1 0x0 ADD PUSH1 0x0 SWAP1 SLOAD SWAP1 PUSH2 0x100 EXP SWAP1 DIV PUSH1 0x60 SHL PUSH12 0xFFFFFFFFFFFFFFFFFFFFFFFF NOT AND EQ PUSH2 0x31C JUMPI PUSH1 0x40 MLOAD PUSH32 0x8C379A000000000000000000000000000000000000000000000000000000000 DUP2 MSTORE PUSH1 0x4 ADD PUSH2 0x313 SWAP1 PUSH2 0x2D68 JUMP JUMPDEST PUSH1 0x40 MLOAD DUP1 SWAP2 SUB SWAP1 REVERT JUMPDEST PUSH1 0x0 DUP1 PUSH1 0x0 DUP9 PUSH12 0xFFFFFFFFFFFFFFFFFFFFFFFF NOT AND PUSH12 0xFFFFFFFFFFFFFFFFFFFFFFFF NOT AND DUP2 MSTORE PUSH1 0x20 ADD SWAP1 DUP2 MSTORE PUSH1 0x20 ADD PUSH1 0x0 KECCAK256 SWAP1 POP PUSH1 0x0 DUP2 PUSH1 0x5 ADD PUSH1 0x2 ADD PUSH1 0x0 DUP9 PUSH20 0xFFFFFFFFFFFFFFFFFFFFFFFFFFFFFFFFFFFFFFFF AND PUSH20 0xFFFFFFFFFFFFFFFFFFFFFFFFFFFFFFFFFFFFFFFF AND DUP2 MSTORE PUSH1 0x20 ADD SWAP1 DUP2 MSTORE PUSH1 0x20 ADD PUSH1 0x0 KECCAK256 SWAP1 POP DUP1 PUSH1 0x0 ADD PUSH1 0x0 SWAP1 SLOAD SWAP1 PUSH2 0x100 EXP SWAP1 DIV PUSH1 0xFF AND DUP2 PUSH1 0x1 ADD SLOAD DUP3 PUSH1 0x2 ADD PUSH1 0x0 SWAP1 SLOAD SWAP1 PUSH2 0x100 EXP SWAP1 DIV PUSH1 0xFF AND SWAP6 POP SWAP6 POP SWAP6 POP POP POP POP SWAP3 POP SWAP3 POP SWAP3 JUMP JUMPDEST DUP2 DUP1 PUSH12 0xFFFFFFFFFFFFFFFFFFFFFFFF NOT AND PUSH1 0x0 DUP1 DUP4 PUSH12 0xFFFFFFFFFFFFFFFFFFFFFFFF NOT AND PUSH12 0xFFFFFFFFFFFFFFFFFFFFFFFF NOT AND DUP2 MSTORE PUSH1 0x20 ADD SWAP1 DUP2 MSTORE PUSH1 0x20 ADD PUSH1 0x0 KECCAK256 PUSH1 0x0 ADD PUSH1 0x0 SWAP1 SLOAD SWAP1 PUSH2 0x100 EXP SWAP1 DIV PUSH1 0x60 SHL PUSH12 0xFFFFFFFFFFFFFFFFFFFFFFFF NOT AND EQ PUSH2 0x472 JUMPI PUSH1 0x40 MLOAD PUSH32 0x8C379A000000000000000000000000000000000000000000000000000000000 DUP2 MSTORE PUSH1 0x4 ADD PUSH2 0x469 SWAP1 PUSH2 0x2D68 JUMP JUMPDEST PUSH1 0x40 MLOAD DUP1 SWAP2 SUB SWAP1 REVERT JUMPDEST DUP3 PUSH1 0x0 DUP1 PUSH1 0x0 DUP4 PUSH12 0xFFFFFFFFFFFFFFFFFFFFFFFF NOT AND PUSH12 0xFFFFFFFFFFFFFFFFFFFFFFFF NOT AND DUP2 MSTORE PUSH1 0x20 ADD SWAP1 DUP2 MSTORE PUSH1 0x20 ADD PUSH1 0x0 KECCAK256 SWAP1 POP PUSH2 0x53C CALLER DUP3 PUSH1 0x5 ADD PUSH1 0x0 ADD DUP1 SLOAD DUP1 PUSH1 0x20 MUL PUSH1 0x20 ADD PUSH1 0x40 MLOAD SWAP1 DUP2 ADD PUSH1 0x40 MSTORE DUP1 SWAP3 SWAP2 SWAP1 DUP2 DUP2 MSTORE PUSH1 0x20 ADD DUP3 DUP1 SLOAD DUP1 ISZERO PUSH2 0x532 JUMPI PUSH1 0x20 MUL DUP3 ADD SWAP2 SWAP1 PUSH1 0x0 MSTORE PUSH1 0x20 PUSH1 0x0 KECCAK256 SWAP1 JUMPDEST DUP2 PUSH1 0x0 SWAP1 SLOAD SWAP1 PUSH2 0x100 EXP SWAP1 DIV PUSH20 0xFFFFFFFFFFFFFFFFFFFFFFFFFFFFFFFFFFFFFFFF AND PUSH20 0xFFFFFFFFFFFFFFFFFFFFFFFFFFFFFFFFFFFFFFFF AND DUP2 MSTORE PUSH1 0x20 ADD SWAP1 PUSH1 0x1 ADD SWAP1 DUP1 DUP4 GT PUSH2 0x4E8 JUMPI JUMPDEST POP POP POP POP POP PUSH2 0x2154 JUMP JUMPDEST PUSH2 0x57B JUMPI PUSH1 0x40 MLOAD PUSH32 0x8C379A000000000000000000000000000000000000000000000000000000000 DUP2 MSTORE PUSH1 0x4 ADD PUSH2 0x572 SWAP1 PUSH2 0x2DD4 JUMP JUMPDEST PUSH1 0x40 MLOAD DUP1 SWAP2 SUB SWAP1 REVERT JUMPDEST DUP5 PUSH1 0x0 DUP1 PUSH1 0x0 DUP4 PUSH12 0xFFFFFFFFFFFFFFFFFFFFFFFF NOT AND PUSH12 0xFFFFFFFFFFFFFFFFFFFFFFFF NOT AND DUP2 MSTORE PUSH1 0x20 ADD SWAP1 DUP2 MSTORE PUSH1 0x20 ADD PUSH1 0x0 KECCAK256 SWAP1 POP PUSH1 0x0 DUP2 PUSH1 0x5 ADD PUSH1 0x2 ADD PUSH1 0x0 CALLER PUSH20 0xFFFFFFFFFFFFFFFFFFFFFFFFFFFFFFFFFFFFFFFF AND PUSH20 0xFFFFFFFFFFFFFFFFFFFFFFFFFFFFFFFFFFFFFFFF AND DUP2 MSTORE PUSH1 0x20 ADD SWAP1 DUP2 MSTORE PUSH1 0x20 ADD PUSH1 0x0 KECCAK256 SWAP1 POP DUP1 PUSH1 0x2 ADD PUSH1 0x0 SWAP1 SLOAD SWAP1 PUSH2 0x100 EXP SWAP1 DIV PUSH1 0xFF AND DUP1 ISZERO PUSH2 0x64B JUMPI POP PUSH1 0x1 PUSH1 0x2 DUP2 GT ISZERO PUSH2 0x625 JUMPI PUSH2 0x624 PUSH2 0x2638 JUMP JUMPDEST JUMPDEST DUP2 PUSH1 0x0 ADD PUSH1 0x0 SWAP1 SLOAD SWAP1 PUSH2 0x100 EXP SWAP1 DIV PUSH1 0xFF AND PUSH1 0x2 DUP2 GT ISZERO PUSH2 0x649 JUMPI PUSH2 0x648 PUSH2 0x2638 JUMP JUMPDEST JUMPDEST EQ JUMPDEST PUSH2 0x68A JUMPI PUSH1 0x40 MLOAD PUSH32 0x8C379A000000000000000000000000000000000000000000000000000000000 DUP2 MSTORE PUSH1 0x4 ADD PUSH2 0x681 SWAP1 PUSH2 0x2E66 JUMP JUMPDEST PUSH1 0x40 MLOAD DUP1 SWAP2 SUB SWAP1 REVERT JUMPDEST PUSH1 0x0 DUP1 PUSH1 0x0 DUP11 PUSH12 0xFFFFFFFFFFFFFFFFFFFFFFFF NOT AND PUSH12 0xFFFFFFFFFFFFFFFFFFFFFFFF NOT AND DUP2 MSTORE PUSH1 0x20 ADD SWAP1 DUP2 MSTORE PUSH1 0x20 ADD PUSH1 0x0 KECCAK256 SWAP1 POP PUSH1 0x0 JUMPDEST DUP9 MLOAD DUP2 LT ISZERO PUSH2 0x782 JUMPI PUSH1 0x0 DUP10 DUP3 DUP2 MLOAD DUP2 LT PUSH2 0x6DF JUMPI PUSH2 0x6DE PUSH2 0x2E86 JUMP JUMPDEST JUMPDEST PUSH1 0x20 MUL PUSH1 0x20 ADD ADD MLOAD SWAP1 POP DUP3 PUSH1 0x8 ADD PUSH1 0x1 ADD DUP2 SWAP1 DUP1 PUSH1 0x1 DUP2 SLOAD ADD DUP1 DUP3 SSTORE DUP1 SWAP2 POP POP PUSH1 0x1 SWAP1 SUB SWAP1 PUSH1 0x0 MSTORE PUSH1 0x20 PUSH1 0x0 KECCAK256 ADD PUSH1 0x0 SWAP1 SWAP2 SWAP1 SWAP2 SWAP1 SWAP2 PUSH2 0x100 EXP DUP2 SLOAD DUP2 PUSH20 0xFFFFFFFFFFFFFFFFFFFFFFFFFFFFFFFFFFFFFFFF MUL NOT AND SWAP1 DUP4 PUSH20 0xFFFFFFFFFFFFFFFFFFFFFFFFFFFFFFFFFFFFFFFF AND MUL OR SWAP1 SSTORE POP DUP3 PUSH1 0x8 ADD PUSH1 0x0 ADD PUSH1 0x0 DUP2 SLOAD DUP1 SWAP3 SWAP2 SWAP1 PUSH2 0x769 SWAP1 PUSH2 0x2EE4 JUMP JUMPDEST SWAP2 SWAP1 POP SSTORE POP POP DUP1 DUP1 PUSH2 0x77A SWAP1 PUSH2 0x2EE4 JUMP JUMPDEST SWAP2 POP POP PUSH2 0x6C1 JUMP JUMPDEST POP PUSH1 0x0 DUP2 PUSH1 0x5 ADD PUSH1 0x2 ADD PUSH1 0x0 CALLER PUSH20 0xFFFFFFFFFFFFFFFFFFFFFFFFFFFFFFFFFFFFFFFF AND PUSH20 0xFFFFFFFFFFFFFFFFFFFFFFFFFFFFFFFFFFFFFFFF AND DUP2 MSTORE PUSH1 0x20 ADD SWAP1 DUP2 MSTORE PUSH1 0x20 ADD PUSH1 0x0 KECCAK256 PUSH1 0x2 ADD PUSH1 0x0 PUSH2 0x100 EXP DUP2 SLOAD DUP2 PUSH1 0xFF MUL NOT AND SWAP1 DUP4 ISZERO ISZERO MUL OR SWAP1 SSTORE POP DUP9 PUSH12 0xFFFFFFFFFFFFFFFFFFFFFFFF NOT AND PUSH32 0x7F665EA4964FBBD83C015325C3050F8560D1743F429F4A8F96CBE0FEB37EB9E2 DUP10 TIMESTAMP PUSH1 0x40 MLOAD PUSH2 0x824 SWAP3 SWAP2 SWAP1 PUSH2 0x2FDB JUMP JUMPDEST PUSH1 0x40 MLOAD DUP1 SWAP2 SUB SWAP1 LOG2 POP POP POP POP POP POP POP POP POP JUMP JUMPDEST DUP2 PUSH1 0x4 DUP1 PUSH1 0x5 DUP2 GT ISZERO PUSH2 0x84D JUMPI PUSH2 0x84C PUSH2 0x2638 JUMP JUMPDEST JUMPDEST PUSH1 0x0 DUP1 DUP5 PUSH12 0xFFFFFFFFFFFFFFFFFFFFFFFF NOT AND PUSH12 0xFFFFFFFFFFFFFFFFFFFFFFFF NOT AND DUP2 MSTORE PUSH1 0x20 ADD SWAP1 DUP2 MSTORE PUSH1 0x20 ADD PUSH1 0x0 KECCAK256 PUSH1 0x4 ADD PUSH1 0x0 SWAP1 SLOAD SWAP1 PUSH2 0x100 EXP SWAP1 DIV PUSH1 0xFF AND PUSH1 0x5 DUP2 GT ISZERO PUSH2 0x8A0 JUMPI PUSH2 0x89F PUSH2 0x2638 JUMP JUMPDEST JUMPDEST EQ PUSH2 0x8E0 JUMPI PUSH1 0x40 MLOAD PUSH32 0x8C379A000000000000000000000000000000000000000000000000000000000 DUP2 MSTORE PUSH1 0x4 ADD PUSH2 0x8D7 SWAP1 PUSH2 0x3057 JUMP JUMPDEST PUSH1 0x40 MLOAD DUP1 SWAP2 SUB SWAP1 REVERT JUMPDEST PUSH1 0x0 DUP1 PUSH1 0x0 DUP7 PUSH12 0xFFFFFFFFFFFFFFFFFFFFFFFF NOT AND PUSH12 0xFFFFFFFFFFFFFFFFFFFFFFFF NOT AND DUP2 MSTORE PUSH1 0x20 ADD SWAP1 DUP2 MSTORE PUSH1 0x20 ADD PUSH1 0x0 KECCAK256 SWAP1 POP PUSH1 0x0 DUP2 PUSH1 0xB ADD PUSH1 0x0 CALLER PUSH20 0xFFFFFFFFFFFFFFFFFFFFFFFFFFFFFFFFFFFFFFFF AND PUSH20 0xFFFFFFFFFFFFFFFFFFFFFFFFFFFFFFFFFFFFFFFF AND DUP2 MSTORE PUSH1 0x20 ADD SWAP1 DUP2 MSTORE PUSH1 0x20 ADD PUSH1 0x0 KECCAK256 SWAP1 POP DUP1 PUSH1 0x40 MLOAD DUP1 PUSH1 0x60 ADD PUSH1 0x40 MSTORE DUP1 DUP8 DUP2 MSTORE PUSH1 0x20 ADD TIMESTAMP DUP2 MSTORE PUSH1 0x20 ADD CALLER PUSH20 0xFFFFFFFFFFFFFFFFFFFFFFFFFFFFFFFFFFFFFFFF AND DUP2 MSTORE POP SWAP1 DUP1 PUSH1 0x1 DUP2 SLOAD ADD DUP1 DUP3 SSTORE DUP1 SWAP2 POP POP PUSH1 0x1 SWAP1 SUB SWAP1 PUSH1 0x0 MSTORE PUSH1 0x20 PUSH1 0x0 KECCAK256 SWAP1 PUSH1 0x3 MUL ADD PUSH1 0x0 SWAP1 SWAP2 SWAP1 SWAP2 SWAP1 SWAP2 POP PUSH1 0x0 DUP3 ADD MLOAD DUP2 PUSH1 0x0 ADD SSTORE PUSH1 0x20 DUP3 ADD MLOAD DUP2 PUSH1 0x1 ADD SSTORE PUSH1 0x40 DUP3 ADD MLOAD DUP2 PUSH1 0x2 ADD PUSH1 0x0 PUSH2 0x100 EXP DUP2 SLOAD DUP2 PUSH20 0xFFFFFFFFFFFFFFFFFFFFFFFFFFFFFFFFFFFFFFFF MUL NOT AND SWAP1 DUP4 PUSH20 0xFFFFFFFFFFFFFFFFFFFFFFFFFFFFFFFFFFFFFFFF AND MUL OR SWAP1 SSTORE POP POP POP CALLER PUSH20 0xFFFFFFFFFFFFFFFFFFFFFFFFFFFFFFFFFFFFFFFF AND DUP7 PUSH12 0xFFFFFFFFFFFFFFFFFFFFFFFF NOT AND PUSH32 0x6250F9232DF6557B5CFBE4CE36D20D61E3F5D9D8E88BB9BAAE96B80C5349770A DUP8 TIMESTAMP PUSH1 0x40 MLOAD PUSH2 0xA69 SWAP3 SWAP2 SWAP1 PUSH2 0x3077 JUMP JUMPDEST PUSH1 0x40 MLOAD DUP1 SWAP2 SUB SWAP1 LOG3 POP POP POP POP POP POP JUMP JUMPDEST DUP1 PUSH1 0x2 DUP1 PUSH1 0x5 DUP2 GT ISZERO PUSH2 0xA8F JUMPI PUSH2 0xA8E PUSH2 0x2638 JUMP JUMPDEST JUMPDEST PUSH1 0x0 DUP1 DUP5 PUSH12 0xFFFFFFFFFFFFFFFFFFFFFFFF NOT AND PUSH12 0xFFFFFFFFFFFFFFFFFFFFFFFF NOT AND DUP2 MSTORE PUSH1 0x20 ADD SWAP1 DUP2 MSTORE PUSH1 0x20 ADD PUSH1 0x0 KECCAK256 PUSH1 0x4 ADD PUSH1 0x0 SWAP1 SLOAD SWAP1 PUSH2 0x100 EXP SWAP1 DIV PUSH1 0xFF AND PUSH1 0x5 DUP2 GT ISZERO PUSH2 0xAE2 JUMPI PUSH2 0xAE1 PUSH2 0x2638 JUMP JUMPDEST JUMPDEST EQ PUSH2 0xB22 JUMPI PUSH1 0x40 MLOAD PUSH32 0x8C379A000000000000000000000000000000000000000000000000000000000 DUP2 MSTORE PUSH1 0x4 ADD PUSH2 0xB19 SWAP1 PUSH2 0x3057 JUMP JUMPDEST PUSH1 0x40 MLOAD DUP1 SWAP2 SUB SWAP1 REVERT JUMPDEST DUP3 CALLER PUSH20 0xFFFFFFFFFFFFFFFFFFFFFFFFFFFFFFFFFFFFFFFF AND PUSH1 0x0 DUP1 DUP4 PUSH12 0xFFFFFFFFFFFFFFFFFFFFFFFF NOT AND PUSH12 0xFFFFFFFFFFFFFFFFFFFFFFFF NOT AND DUP2 MSTORE PUSH1 0x20 ADD SWAP1 DUP2 MSTORE PUSH1 0x20 ADD PUSH1 0x0 KECCAK256 PUSH1 0x2 ADD PUSH1 0x0 SWAP1 SLOAD SWAP1 PUSH2 0x100 EXP SWAP1 DIV PUSH20 0xFFFFFFFFFFFFFFFFFFFFFFFFFFFFFFFFFFFFFFFF AND PUSH20 0xFFFFFFFFFFFFFFFFFFFFFFFFFFFFFFFFFFFFFFFF AND EQ PUSH2 0xBE4 JUMPI PUSH1 0x40 MLOAD PUSH32 0x8C379A000000000000000000000000000000000000000000000000000000000 DUP2 MSTORE PUSH1 0x4 ADD PUSH2 0xBDB SWAP1 PUSH2 0x3112 JUMP JUMPDEST PUSH1 0x40 MLOAD DUP1 SWAP2 SUB SWAP1 REVERT JUMPDEST PUSH1 0x0 DUP1 PUSH1 0x0 DUP7 PUSH12 0xFFFFFFFFFFFFFFFFFFFFFFFF NOT AND PUSH12 0xFFFFFFFFFFFFFFFFFFFFFFFF NOT AND DUP2 MSTORE PUSH1 0x20 ADD SWAP1 DUP2 MSTORE PUSH1 0x20 ADD PUSH1 0x0 KECCAK256 SWAP1 POP PUSH1 0x4 DUP2 PUSH1 0x4 ADD PUSH1 0x0 PUSH2 0x100 EXP DUP2 SLOAD DUP2 PUSH1 0xFF MUL NOT AND SWAP1 DUP4 PUSH1 0x5 DUP2 GT ISZERO PUSH2 0xC40 JUMPI PUSH2 0xC3F PUSH2 0x2638 JUMP JUMPDEST JUMPDEST MUL OR SWAP1 SSTORE POP DUP5 PUSH12 0xFFFFFFFFFFFFFFFFFFFFFFFF NOT AND PUSH32 0xA7C0A847451B56E5361229444F6894EB07712353796423821F369E0AA6F54EB4 TIMESTAMP PUSH1 0x40 MLOAD PUSH2 0xC84 SWAP2 SWAP1 PUSH2 0x3132 JUMP JUMPDEST PUSH1 0x40 MLOAD DUP1 SWAP2 SUB SWAP1 LOG2 POP POP POP POP POP JUMP JUMPDEST PUSH1 0x0 DUP1 PUSH1 0x0 DUP1 PUSH1 0x0 DUP1 PUSH1 0x0 DUP8 DUP1 PUSH12 0xFFFFFFFFFFFFFFFFFFFFFFFF NOT AND PUSH1 0x0 DUP1 DUP4 PUSH12 0xFFFFFFFFFFFFFFFFFFFFFFFF NOT AND PUSH12 0xFFFFFFFFFFFFFFFFFFFFFFFF NOT AND DUP2 MSTORE PUSH1 0x20 ADD SWAP1 DUP2 MSTORE PUSH1 0x20 ADD PUSH1 0x0 KECCAK256 PUSH1 0x0 ADD PUSH1 0x0 SWAP1 SLOAD SWAP1 PUSH2 0x100 EXP SWAP1 DIV PUSH1 0x60 SHL PUSH12 0xFFFFFFFFFFFFFFFFFFFFFFFF NOT AND EQ PUSH2 0xD3F JUMPI PUSH1 0x40 MLOAD PUSH32 0x8C379A000000000000000000000000000000000000000000000000000000000 DUP2 MSTORE PUSH1 0x4 ADD PUSH2 0xD36 SWAP1 PUSH2 0x2D68 JUMP JUMPDEST PUSH1 0x40 MLOAD DUP1 SWAP2 SUB SWAP1 REVERT JUMPDEST PUSH1 0x0 DUP1 PUSH1 0x0 DUP12 PUSH12 0xFFFFFFFFFFFFFFFFFFFFFFFF NOT AND PUSH12 0xFFFFFFFFFFFFFFFFFFFFFFFF NOT AND DUP2 MSTORE PUSH1 0x20 ADD SWAP1 DUP2 MSTORE PUSH1 0x20 ADD PUSH1 0x0 KECCAK256 SWAP1 POP DUP1 PUSH1 0x0 ADD PUSH1 0x0 SWAP1 SLOAD SWAP1 PUSH2 0x100 EXP SWAP1 DIV PUSH1 0x60 SHL DUP2 PUSH1 0x2 ADD PUSH1 0x0 SWAP1 SLOAD SWAP1 PUSH2 0x100 EXP SWAP1 DIV PUSH20 0xFFFFFFFFFFFFFFFFFFFFFFFFFFFFFFFFFFFFFFFF AND DUP3 PUSH1 0x3 ADD SLOAD DUP4 PUSH1 0x1 ADD SLOAD DUP5 PUSH1 0x4 ADD PUSH1 0x0 SWAP1 SLOAD SWAP1 PUSH2 0x100 EXP SWAP1 DIV PUSH1 0xFF AND DUP6 PUSH1 0x5 ADD PUSH1 0x1 ADD SLOAD DUP7 PUSH1 0x8 ADD PUSH1 0x0 ADD SLOAD SWAP9 POP SWAP9 POP SWAP9 POP SWAP9 POP SWAP9 POP SWAP9 POP SWAP9 POP POP POP SWAP2 SWAP4 SWAP6 SWAP8 SWAP1 SWAP3 SWAP5 SWAP7 POP JUMP JUMPDEST DUP3 PUSH1 0x0 DUP1 PUSH1 0x0 DUP4 PUSH12 0xFFFFFFFFFFFFFFFFFFFFFFFF NOT AND PUSH12 0xFFFFFFFFFFFFFFFFFFFFFFFF NOT AND DUP2 MSTORE PUSH1 0x20 ADD SWAP1 DUP2 MSTORE PUSH1 0x20 ADD PUSH1 0x0 KECCAK256 SWAP1 POP PUSH2 0xEBB CALLER DUP3 PUSH1 0x5 ADD PUSH1 0x0 ADD DUP1 SLOAD DUP1 PUSH1 0x20 MUL PUSH1 0x20 ADD PUSH1 0x40 MLOAD SWAP1 DUP2 ADD PUSH1 0x40 MSTORE DUP1 SWAP3 SWAP2 SWAP1 DUP2 DUP2 MSTORE PUSH1 0x20 ADD DUP3 DUP1 SLOAD DUP1 ISZERO PUSH2 0xEB1 JUMPI PUSH1 0x20 MUL DUP3 ADD SWAP2 SWAP1 PUSH1 0x0 MSTORE PUSH1 0x20 PUSH1 0x0 KECCAK256 SWAP1 JUMPDEST DUP2 PUSH1 0x0 SWAP1 SLOAD SWAP1 PUSH2 0x100 EXP SWAP1 DIV PUSH20 0xFFFFFFFFFFFFFFFFFFFFFFFFFFFFFFFFFFFFFFFF AND PUSH20 0xFFFFFFFFFFFFFFFFFFFFFFFFFFFFFFFFFFFFFFFF AND DUP2 MSTORE PUSH1 0x20 ADD SWAP1 PUSH1 0x1 ADD SWAP1 DUP1 DUP4 GT PUSH2 0xE67 JUMPI JUMPDEST POP POP POP POP POP PUSH2 0x2154 JUMP JUMPDEST DUP1 PUSH2 0xF57 JUMPI POP PUSH2 0xF56 CALLER DUP3 PUSH1 0x8 ADD PUSH1 0x1 ADD DUP1 SLOAD DUP1 PUSH1 0x20 MUL PUSH1 0x20 ADD PUSH1 0x40 MLOAD SWAP1 DUP2 ADD PUSH1 0x40 MSTORE DUP1 SWAP3 SWAP2 SWAP1 DUP2 DUP2 MSTORE PUSH1 0x20 ADD DUP3 DUP1 SLOAD DUP1 ISZERO PUSH2 0xF4C JUMPI PUSH1 0x20 MUL DUP3 ADD SWAP2 SWAP1 PUSH1 0x0 MSTORE PUSH1 0x20 PUSH1 0x0 KECCAK256 SWAP1 JUMPDEST DUP2 PUSH1 0x0 SWAP1 SLOAD SWAP1 PUSH2 0x100 EXP SWAP1 DIV PUSH20 0xFFFFFFFFFFFFFFFFFFFFFFFFFFFFFFFFFFFFFFFF AND PUSH20 0xFFFFFFFFFFFFFFFFFFFFFFFFFFFFFFFFFFFFFFFF AND DUP2 MSTORE PUSH1 0x20 ADD SWAP1 PUSH1 0x1 ADD SWAP1 DUP1 DUP4 GT PUSH2 0xF02 JUMPI JUMPDEST POP POP POP POP POP PUSH2 0x2154 JUMP JUMPDEST JUMPDEST PUSH2 0xF96 JUMPI PUSH1 0x40 MLOAD PUSH32 0x8C379A000000000000000000000000000000000000000000000000000000000 DUP2 MSTORE PUSH1 0x4 ADD PUSH2 0xF8D SWAP1 PUSH2 0x3199 JUMP JUMPDEST PUSH1 0x40 MLOAD DUP1 SWAP2 SUB SWAP1 REVERT JUMPDEST DUP5 PUSH1 0x0 DUP1 PUSH1 0x0 DUP4 PUSH12 0xFFFFFFFFFFFFFFFFFFFFFFFF NOT AND PUSH12 0xFFFFFFFFFFFFFFFFFFFFFFFF NOT AND DUP2 MSTORE PUSH1 0x20 ADD SWAP1 DUP2 MSTORE PUSH1 0x20 ADD PUSH1 0x0 KECCAK256 SWAP1 POP TIMESTAMP DUP2 PUSH1 0x3 ADD SLOAD GT PUSH2 0x1011 JUMPI PUSH1 0x40 MLOAD PUSH32 0x8C379A000000000000000000000000000000000000000000000000000000000 DUP2 MSTORE PUSH1 0x4 ADD PUSH2 0x1008 SWAP1 PUSH2 0x322B JUMP JUMPDEST PUSH1 0x40 MLOAD DUP1 SWAP2 SUB SWAP1 REVERT JUMPDEST PUSH1 0x0 DUP1 PUSH1 0x0 DUP10 PUSH12 0xFFFFFFFFFFFFFFFFFFFFFFFF NOT AND PUSH12 0xFFFFFFFFFFFFFFFFFFFFFFFF NOT AND DUP2 MSTORE PUSH1 0x20 ADD SWAP1 DUP2 MSTORE PUSH1 0x20 ADD PUSH1 0x0 KECCAK256 SWAP1 POP PUSH2 0x10DA CALLER DUP3 PUSH1 0x5 ADD PUSH1 0x0 ADD DUP1 SLOAD DUP1 PUSH1 0x20 MUL PUSH1 0x20 ADD PUSH1 0x40 MLOAD SWAP1 DUP2 ADD PUSH1 0x40 MSTORE DUP1 SWAP3 SWAP2 SWAP1 DUP2 DUP2 MSTORE PUSH1 0x20 ADD DUP3 DUP1 SLOAD DUP1 ISZERO PUSH2 0x10D0 JUMPI PUSH1 0x20 MUL DUP3 ADD SWAP2 SWAP1 PUSH1 0x0 MSTORE PUSH1 0x20 PUSH1 0x0 KECCAK256 SWAP1 JUMPDEST DUP2 PUSH1 0x0 SWAP1 SLOAD SWAP1 PUSH2 0x100 EXP SWAP1 DIV PUSH20 0xFFFFFFFFFFFFFFFFFFFFFFFFFFFFFFFFFFFFFFFF AND PUSH20 0xFFFFFFFFFFFFFFFFFFFFFFFFFFFFFFFFFFFFFFFF AND DUP2 MSTORE PUSH1 0x20 ADD SWAP1 PUSH1 0x1 ADD SWAP1 DUP1 DUP4 GT PUSH2 0x1086 JUMPI JUMPDEST POP POP POP POP POP PUSH2 0x2154 JUMP JUMPDEST ISZERO PUSH2 0x10EB JUMPI PUSH2 0x10EA DUP9 DUP9 DUP9 PUSH2 0x21DB JUMP JUMPDEST JUMPDEST PUSH2 0x1180 CALLER DUP3 PUSH1 0x8 ADD PUSH1 0x1 ADD DUP1 SLOAD DUP1 PUSH1 0x20 MUL PUSH1 0x20 ADD PUSH1 0x40 MLOAD SWAP1 DUP2 ADD PUSH1 0x40 MSTORE DUP1 SWAP3 SWAP2 SWAP1 DUP2 DUP2 MSTORE PUSH1 0x20 ADD DUP3 DUP1 SLOAD DUP1 ISZERO PUSH2 0x1176 JUMPI PUSH1 0x20 MUL DUP3 ADD SWAP2 SWAP1 PUSH1 0x0 MSTORE PUSH1 0x20 PUSH1 0x0 KECCAK256 SWAP1 JUMPDEST DUP2 PUSH1 0x0 SWAP1 SLOAD SWAP1 PUSH2 0x100 EXP SWAP1 DIV PUSH20 0xFFFFFFFFFFFFFFFFFFFFFFFFFFFFFFFFFFFFFFFF AND PUSH20 0xFFFFFFFFFFFFFFFFFFFFFFFFFFFFFFFFFFFFFFFF AND DUP2 MSTORE PUSH1 0x20 ADD SWAP1 PUSH1 0x1 ADD SWAP1 DUP1 DUP4 GT PUSH2 0x112C JUMPI JUMPDEST POP POP POP POP POP PUSH2 0x2154 JUMP JUMPDEST ISZERO PUSH2 0x1191 JUMPI PUSH2 0x1190 DUP9 DUP9 DUP9 PUSH2 0x2325 JUMP JUMPDEST JUMPDEST POP POP POP POP POP POP POP POP JUMP JUMPDEST DUP2 DUP1 PUSH12 0xFFFFFFFFFFFFFFFFFFFFFFFF NOT AND PUSH1 0x0 DUP1 DUP4 PUSH12 0xFFFFFFFFFFFFFFFFFFFFFFFF NOT AND PUSH12 0xFFFFFFFFFFFFFFFFFFFFFFFF NOT AND DUP2 MSTORE PUSH1 0x20 ADD SWAP1 DUP2 MSTORE PUSH1 0x20 ADD PUSH1 0x0 KECCAK256 PUSH1 0x0 ADD PUSH1 0x0 SWAP1 SLOAD SWAP1 PUSH2 0x100 EXP SWAP1 DIV PUSH1 0x60 SHL PUSH12 0xFFFFFFFFFFFFFFFFFFFFFFFF NOT AND EQ PUSH2 0x123C JUMPI PUSH1 0x40 MLOAD PUSH32 0x8C379A000000000000000000000000000000000000000000000000000000000 DUP2 MSTORE PUSH1 0x4 ADD PUSH2 0x1233 SWAP1 PUSH2 0x2D68 JUMP JUMPDEST PUSH1 0x40 MLOAD DUP1 SWAP2 SUB SWAP1 REVERT JUMPDEST DUP3 PUSH1 0x0 DUP1 PUSH1 0x5 DUP2 GT ISZERO PUSH2 0x1252 JUMPI PUSH2 0x1251 PUSH2 0x2638 JUMP JUMPDEST JUMPDEST PUSH1 0x0 DUP1 DUP5 PUSH12 0xFFFFFFFFFFFFFFFFFFFFFFFF NOT AND PUSH12 0xFFFFFFFFFFFFFFFFFFFFFFFF NOT AND DUP2 MSTORE PUSH1 0x20 ADD SWAP1 DUP2 MSTORE PUSH1 0x20 ADD PUSH1 0x0 KECCAK256 PUSH1 0x4 ADD PUSH1 0x0 SWAP1 SLOAD SWAP1 PUSH2 0x100 EXP SWAP1 DIV PUSH1 0xFF AND PUSH1 0x5 DUP2 GT ISZERO PUSH2 0x12A5 JUMPI PUSH2 0x12A4 PUSH2 0x2638 JUMP JUMPDEST JUMPDEST EQ PUSH2 0x12E5 JUMPI PUSH1 0x40 MLOAD PUSH32 0x8C379A000000000000000000000000000000000000000000000000000000000 DUP2 MSTORE PUSH1 0x4 ADD PUSH2 0x12DC SWAP1 PUSH2 0x3057 JUMP JUMPDEST PUSH1 0x40 MLOAD DUP1 SWAP2 SUB SWAP1 REVERT JUMPDEST TIMESTAMP DUP5 GT PUSH2 0x1327 JUMPI PUSH1 0x40 MLOAD PUSH32 0x8C379A000000000000000000000000000000000000000000000000000000000 DUP2 MSTORE PUSH1 0x4 ADD PUSH2 0x131E SWAP1 PUSH2 0x3297 JUMP JUMPDEST PUSH1 0x40 MLOAD DUP1 SWAP2 SUB SWAP1 REVERT JUMPDEST PUSH1 0x0 DUP1 PUSH1 0x0 DUP8 PUSH12 0xFFFFFFFFFFFFFFFFFFFFFFFF NOT AND PUSH12 0xFFFFFFFFFFFFFFFFFFFFFFFF NOT AND DUP2 MSTORE PUSH1 0x20 ADD SWAP1 DUP2 MSTORE PUSH1 0x20 ADD PUSH1 0x0 KECCAK256 SWAP1 POP DUP5 DUP2 PUSH1 0x3 ADD DUP2 SWAP1 SSTORE POP PUSH1 0x1 DUP2 PUSH1 0x4 ADD PUSH1 0x0 PUSH2 0x100 EXP DUP2 SLOAD DUP2 PUSH1 0xFF MUL NOT AND SWAP1 DUP4 PUSH1 0x5 DUP2 GT ISZERO PUSH2 0x138C JUMPI PUSH2 0x138B PUSH2 0x2638 JUMP JUMPDEST JUMPDEST MUL OR SWAP1 SSTORE POP CALLER PUSH20 0xFFFFFFFFFFFFFFFFFFFFFFFFFFFFFFFFFFFFFFFF AND DUP7 PUSH12 0xFFFFFFFFFFFFFFFFFFFFFFFF NOT AND PUSH32 0x15EE95DF39513BD16D1A1CC94BFC442F0E6D602F9470D85CE01DD6054DE27C90 TIMESTAMP PUSH1 0x40 MLOAD PUSH2 0x13E7 SWAP2 SWAP1 PUSH2 0x3132 JUMP JUMPDEST PUSH1 0x40 MLOAD DUP1 SWAP2 SUB SWAP1 LOG3 POP POP POP POP POP POP JUMP JUMPDEST PUSH1 0x0 DUP1 DUP4 DUP1 PUSH12 0xFFFFFFFFFFFFFFFFFFFFFFFF NOT AND PUSH1 0x0 DUP1 DUP4 PUSH12 0xFFFFFFFFFFFFFFFFFFFFFFFF NOT AND PUSH12 0xFFFFFFFFFFFFFFFFFFFFFFFF NOT AND DUP2 MSTORE PUSH1 0x20 ADD SWAP1 DUP2 MSTORE PUSH1 0x20 ADD PUSH1 0x0 KECCAK256 PUSH1 0x0 ADD PUSH1 0x0 SWAP1 SLOAD SWAP1 PUSH2 0x100 EXP SWAP1 DIV PUSH1 0x60 SHL PUSH12 0xFFFFFFFFFFFFFFFFFFFFFFFF NOT AND EQ PUSH2 0x149B JUMPI PUSH1 0x40 MLOAD PUSH32 0x8C379A000000000000000000000000000000000000000000000000000000000 DUP2 MSTORE PUSH1 0x4 ADD PUSH2 0x1492 SWAP1 PUSH2 0x2D68 JUMP JUMPDEST PUSH1 0x40 MLOAD DUP1 SWAP2 SUB SWAP1 REVERT JUMPDEST PUSH1 0x0 DUP1 PUSH1 0x0 DUP8 PUSH12 0xFFFFFFFFFFFFFFFFFFFFFFFF NOT AND PUSH12 0xFFFFFFFFFFFFFFFFFFFFFFFF NOT AND DUP2 MSTORE PUSH1 0x20 ADD SWAP1 DUP2 MSTORE PUSH1 0x20 ADD PUSH1 0x0 KECCAK256 SWAP1 POP PUSH1 0x0 DUP2 PUSH1 0x8 ADD PUSH1 0x2 ADD PUSH1 0x0 DUP8 PUSH20 0xFFFFFFFFFFFFFFFFFFFFFFFFFFFFFFFFFFFFFFFF AND PUSH20 0xFFFFFFFFFFFFFFFFFFFFFFFFFFFFFFFFFFFFFFFF AND DUP2 MSTORE PUSH1 0x20 ADD SWAP1 DUP2 MSTORE PUSH1 0x20 ADD PUSH1 0x0 KECCAK256 SWAP1 POP DUP1 PUSH1 0x0 ADD PUSH1 0x0 SWAP1 SLOAD SWAP1 PUSH2 0x100 EXP SWAP1 DIV PUSH1 0xFF AND DUP2 PUSH1 0x1 ADD SLOAD SWAP5 POP SWAP5 POP POP POP POP SWAP3 POP SWAP3 SWAP1 POP JUMP JUMPDEST PUSH1 0x60 DUP3 DUP1 PUSH12 0xFFFFFFFFFFFFFFFFFFFFFFFF NOT AND PUSH1 0x0 DUP1 DUP4 PUSH12 0xFFFFFFFFFFFFFFFFFFFFFFFF NOT AND PUSH12 0xFFFFFFFFFFFFFFFFFFFFFFFF NOT AND DUP2 MSTORE PUSH1 0x20 ADD SWAP1 DUP2 MSTORE PUSH1 0x20 ADD PUSH1 0x0 KECCAK256 PUSH1 0x0 ADD PUSH1 0x0 SWAP1 SLOAD SWAP1 PUSH2 0x100 EXP SWAP1 DIV PUSH1 0x60 SHL PUSH12 0xFFFFFFFFFFFFFFFFFFFFFFFF NOT AND EQ PUSH2 0x15DF JUMPI PUSH1 0x40 MLOAD PUSH32 0x8C379A000000000000000000000000000000000000000000000000000000000 DUP2 MSTORE PUSH1 0x4 ADD PUSH2 0x15D6 SWAP1 PUSH2 0x2D68 JUMP JUMPDEST PUSH1 0x40 MLOAD DUP1 SWAP2 SUB SWAP1 REVERT JUMPDEST PUSH1 0x0 DUP1 PUSH1 0x0 DUP7 PUSH12 0xFFFFFFFFFFFFFFFFFFFFFFFF NOT AND PUSH12 0xFFFFFFFFFFFFFFFFFFFFFFFF NOT AND DUP2 MSTORE PUSH1 0x20 ADD SWAP1 DUP2 MSTORE PUSH1 0x20 ADD PUSH1 0x0 KECCAK256 SWAP1 POP DUP1 PUSH1 0xB ADD PUSH1 0x0 DUP6 PUSH20 0xFFFFFFFFFFFFFFFFFFFFFFFFFFFFFFFFFFFFFFFF AND PUSH20 0xFFFFFFFFFFFFFFFFFFFFFFFFFFFFFFFFFFFFFFFF AND DUP2 MSTORE PUSH1 0x20 ADD SWAP1 DUP2 MSTORE PUSH1 0x20 ADD PUSH1 0x0 KECCAK256 DUP1 SLOAD DUP1 PUSH1 0x20 MUL PUSH1 0x20 ADD PUSH1 0x40 MLOAD SWAP1 DUP2 ADD PUSH1 0x40 MSTORE DUP1 SWAP3 SWAP2 SWAP1 DUP2 DUP2 MSTORE PUSH1 0x20 ADD PUSH1 0x0 SWAP1 JUMPDEST DUP3 DUP3 LT ISZERO PUSH2 0x1710 JUMPI DUP4 DUP3 SWAP1 PUSH1 0x0 MSTORE PUSH1 0x20 PUSH1 0x0 KECCAK256 SWAP1 PUSH1 0x3 MUL ADD PUSH1 0x40 MLOAD DUP1 PUSH1 0x60 ADD PUSH1 0x40 MSTORE SWAP1 DUP2 PUSH1 0x0 DUP3 ADD SLOAD DUP2 MSTORE PUSH1 0x20 ADD PUSH1 0x1 DUP3 ADD SLOAD DUP2 MSTORE PUSH1 0x20 ADD PUSH1 0x2 DUP3 ADD PUSH1 0x0 SWAP1 SLOAD SWAP1 PUSH2 0x100 EXP SWAP1 DIV PUSH20 0xFFFFFFFFFFFFFFFFFFFFFFFFFFFFFFFFFFFFFFFF AND PUSH20 0xFFFFFFFFFFFFFFFFFFFFFFFFFFFFFFFFFFFFFFFF AND PUSH20 0xFFFFFFFFFFFFFFFFFFFFFFFFFFFFFFFFFFFFFFFF AND DUP2 MSTORE POP POP DUP2 MSTORE PUSH1 0x20 ADD SWAP1 PUSH1 0x1 ADD SWAP1 PUSH2 0x1674 JUMP JUMPDEST POP POP POP POP SWAP3 POP POP POP SWAP3 SWAP2 POP POP JUMP JUMPDEST DUP1 CALLER PUSH20 0xFFFFFFFFFFFFFFFFFFFFFFFFFFFFFFFFFFFFFFFF AND PUSH1 0x0 DUP1 DUP4 PUSH12 0xFFFFFFFFFFFFFFFFFFFFFFFF NOT AND PUSH12 0xFFFFFFFFFFFFFFFFFFFFFFFF NOT AND DUP2 MSTORE PUSH1 0x20 ADD SWAP1 DUP2 MSTORE PUSH1 0x20 ADD PUSH1 0x0 KECCAK256 PUSH1 0x2 ADD PUSH1 0x0 SWAP1 SLOAD SWAP1 PUSH2 0x100 EXP SWAP1 DIV PUSH20 0xFFFFFFFFFFFFFFFFFFFFFFFFFFFFFFFFFFFFFFFF AND PUSH20 0xFFFFFFFFFFFFFFFFFFFFFFFFFFFFFFFFFFFFFFFF AND EQ PUSH2 0x17E0 JUMPI PUSH1 0x40 MLOAD PUSH32 0x8C379A000000000000000000000000000000000000000000000000000000000 DUP2 MSTORE PUSH1 0x4 ADD PUSH2 0x17D7 SWAP1 PUSH2 0x3112 JUMP JUMPDEST PUSH1 0x40 MLOAD DUP1 SWAP2 SUB SWAP1 REVERT JUMPDEST PUSH1 0x0 DUP1 PUSH1 0x0 DUP5 PUSH12 0xFFFFFFFFFFFFFFFFFFFFFFFF NOT AND PUSH12 0xFFFFFFFFFFFFFFFFFFFFFFFF NOT AND DUP2 MSTORE PUSH1 0x20 ADD SWAP1 DUP2 MSTORE PUSH1 0x20 ADD PUSH1 0x0 KECCAK256 SWAP1 POP PUSH1 0x2 PUSH1 0x5 DUP2 GT ISZERO PUSH2 0x1828 JUMPI PUSH2 0x1827 PUSH2 0x2638 JUMP JUMPDEST JUMPDEST DUP2 PUSH1 0x4 ADD PUSH1 0x0 SWAP1 SLOAD SWAP1 PUSH2 0x100 EXP SWAP1 DIV PUSH1 0xFF AND PUSH1 0x5 DUP2 GT ISZERO PUSH2 0x184C JUMPI PUSH2 0x184B PUSH2 0x2638 JUMP JUMPDEST JUMPDEST EQ DUP1 PUSH2 0x188D JUMPI POP PUSH1 0x4 PUSH1 0x5 DUP2 GT ISZERO PUSH2 0x1867 JUMPI PUSH2 0x1866 PUSH2 0x2638 JUMP JUMPDEST JUMPDEST DUP2 PUSH1 0x4 ADD PUSH1 0x0 SWAP1 SLOAD SWAP1 PUSH2 0x100 EXP SWAP1 DIV PUSH1 0xFF AND PUSH1 0x5 DUP2 GT ISZERO PUSH2 0x188B JUMPI PUSH2 0x188A PUSH2 0x2638 JUMP JUMPDEST JUMPDEST EQ JUMPDEST PUSH2 0x18CC JUMPI PUSH1 0x40 MLOAD PUSH32 0x8C379A000000000000000000000000000000000000000000000000000000000 DUP2 MSTORE PUSH1 0x4 ADD PUSH2 0x18C3 SWAP1 PUSH2 0x3303 JUMP JUMPDEST PUSH1 0x40 MLOAD DUP1 SWAP2 SUB SWAP1 REVERT JUMPDEST PUSH1 0x5 DUP2 PUSH1 0x4 ADD PUSH1 0x0 PUSH2 0x100 EXP DUP2 SLOAD DUP2 PUSH1 0xFF MUL NOT AND SWAP1 DUP4 PUSH1 0x5 DUP2 GT ISZERO PUSH2 0x18F4 JUMPI PUSH2 0x18F3 PUSH2 0x2638 JUMP JUMPDEST JUMPDEST MUL OR SWAP1 SSTORE POP DUP3 PUSH12 0xFFFFFFFFFFFFFFFFFFFFFFFF NOT AND PUSH32 0xF1A507B7E2361A36316BCC7BAA18C556BED4F652408FC58A2A5F1B6502384B1B TIMESTAMP PUSH1 0x40 MLOAD PUSH2 0x1938 SWAP2 SWAP1 PUSH2 0x3132 JUMP JUMPDEST PUSH1 0x40 MLOAD DUP1 SWAP2 SUB SWAP1 LOG2 POP POP POP JUMP JUMPDEST DUP3 PUSH1 0x0 PUSH1 0x60 SHL PUSH1 0x0 DUP1 DUP4 PUSH12 0xFFFFFFFFFFFFFFFFFFFFFFFF NOT AND PUSH12 0xFFFFFFFFFFFFFFFFFFFFFFFF NOT AND DUP2 MSTORE PUSH1 0x20 ADD SWAP1 DUP2 MSTORE PUSH1 0x20 ADD PUSH1 0x0 KECCAK256 PUSH1 0x0 ADD PUSH1 0x0 SWAP1 SLOAD SWAP1 PUSH2 0x100 EXP SWAP1 DIV PUSH1 0x60 SHL PUSH12 0xFFFFFFFFFFFFFFFFFFFFFFFF NOT AND EQ PUSH2 0x19DB JUMPI PUSH1 0x40 MLOAD PUSH32 0x8C379A000000000000000000000000000000000000000000000000000000000 DUP2 MSTORE PUSH1 0x4 ADD PUSH2 0x19D2 SWAP1 PUSH2 0x336F JUMP JUMPDEST PUSH1 0x40 MLOAD DUP1 SWAP2 SUB SWAP1 REVERT JUMPDEST PUSH1 0x0 DUP3 MLOAD GT PUSH2 0x1A1F JUMPI PUSH1 0x40 MLOAD PUSH32 0x8C379A000000000000000000000000000000000000000000000000000000000 DUP2 MSTORE PUSH1 0x4 ADD PUSH2 0x1A16 SWAP1 PUSH2 0x3401 JUMP JUMPDEST PUSH1 0x40 MLOAD DUP1 SWAP2 SUB SWAP1 REVERT JUMPDEST PUSH1 0x0 DUP1 PUSH1 0x0 DUP7 PUSH12 0xFFFFFFFFFFFFFFFFFFFFFFFF NOT AND PUSH12 0xFFFFFFFFFFFFFFFFFFFFFFFF NOT AND DUP2 MSTORE PUSH1 0x20 ADD SWAP1 DUP2 MSTORE PUSH1 0x20 ADD PUSH1 0x0 KECCAK256 SWAP1 POP DUP5 DUP2 PUSH1 0x0 ADD PUSH1 0x0 PUSH2 0x100 EXP DUP2 SLOAD DUP2 PUSH20 0xFFFFFFFFFFFFFFFFFFFFFFFFFFFFFFFFFFFFFFFF MUL NOT AND SWAP1 DUP4 PUSH1 0x60 SHR MUL OR SWAP1 SSTORE POP CALLER DUP2 PUSH1 0x2 ADD PUSH1 0x0 PUSH2 0x100 EXP DUP2 SLOAD DUP2 PUSH20 0xFFFFFFFFFFFFFFFFFFFFFFFFFFFFFFFFFFFFFFFF MUL NOT AND SWAP1 DUP4 PUSH20 0xFFFFFFFFFFFFFFFFFFFFFFFFFFFFFFFFFFFFFFFF AND MUL OR SWAP1 SSTORE POP DUP4 DUP2 PUSH1 0x1 ADD DUP2 SWAP1 SSTORE POP PUSH1 0x0 DUP2 PUSH1 0x4 ADD PUSH1 0x0 PUSH2 0x100 EXP DUP2 SLOAD DUP2 PUSH1 0xFF MUL NOT AND SWAP1 DUP4 PUSH1 0x5 DUP2 GT ISZERO PUSH2 0x1AF7 JUMPI PUSH2 0x1AF6 PUSH2 0x2638 JUMP JUMPDEST JUMPDEST MUL OR SWAP1 SSTORE POP DUP3 DUP2 PUSH1 0x5 ADD PUSH1 0x0 ADD SWAP1 DUP1 MLOAD SWAP1 PUSH1 0x20 ADD SWAP1 PUSH2 0x1B17 SWAP3 SWAP2 SWAP1 PUSH2 0x2487 JUMP JUMPDEST POP DUP3 MLOAD DUP2 PUSH1 0x5 ADD PUSH1 0x1 ADD DUP2 SWAP1 SSTORE POP PUSH1 0x0 JUMPDEST DUP4 MLOAD DUP2 LT ISZERO PUSH2 0x1BBE JUMPI PUSH1 0x1 DUP3 PUSH1 0x5 ADD PUSH1 0x2 ADD PUSH1 0x0 DUP7 DUP5 DUP2 MLOAD DUP2 LT PUSH2 0x1B4F JUMPI PUSH2 0x1B4E PUSH2 0x2E86 JUMP JUMPDEST JUMPDEST PUSH1 0x20 MUL PUSH1 0x20 ADD ADD MLOAD PUSH20 0xFFFFFFFFFFFFFFFFFFFFFFFFFFFFFFFFFFFFFFFF AND PUSH20 0xFFFFFFFFFFFFFFFFFFFFFFFFFFFFFFFFFFFFFFFF AND DUP2 MSTORE PUSH1 0x20 ADD SWAP1 DUP2 MSTORE PUSH1 0x20 ADD PUSH1 0x0 KECCAK256 PUSH1 0x2 ADD PUSH1 0x0 PUSH2 0x100 EXP DUP2 SLOAD DUP2 PUSH1 0xFF MUL NOT AND SWAP1 DUP4 ISZERO ISZERO MUL OR SWAP1 SSTORE POP DUP1 DUP1 PUSH2 0x1BB6 SWAP1 PUSH2 0x2EE4 JUMP JUMPDEST SWAP2 POP POP PUSH2 0x1B28 JUMP JUMPDEST POP TIMESTAMP CALLER PUSH20 0xFFFFFFFFFFFFFFFFFFFFFFFFFFFFFFFFFFFFFFFF AND DUP7 PUSH12 0xFFFFFFFFFFFFFFFFFFFFFFFF NOT AND PUSH32 0x9D7BD05CE6D23F57A8DEFFADDFD1A3332C176102A621DB7944E90A9763B7E0D8 DUP8 DUP8 PUSH1 0x40 MLOAD PUSH2 0x1C18 SWAP3 SWAP2 SWAP1 PUSH2 0x3421 JUMP JUMPDEST PUSH1 0x40 MLOAD DUP1 SWAP2 SUB SWAP1 LOG4 POP POP POP POP POP JUMP JUMPDEST PUSH1 0x0 DUP2 DUP1 PUSH12 0xFFFFFFFFFFFFFFFFFFFFFFFF NOT AND PUSH1 0x0 DUP1 DUP4 PUSH12 0xFFFFFFFFFFFFFFFFFFFFFFFF NOT AND PUSH12 0xFFFFFFFFFFFFFFFFFFFFFFFF NOT AND DUP2 MSTORE PUSH1 0x20 ADD SWAP1 DUP2 MSTORE PUSH1 0x20 ADD PUSH1 0x0 KECCAK256 PUSH1 0x0 ADD PUSH1 0x0 SWAP1 SLOAD SWAP1 PUSH2 0x100 EXP SWAP1 DIV PUSH1 0x60 SHL PUSH12 0xFFFFFFFFFFFFFFFFFFFFFFFF NOT AND EQ PUSH2 0x1CCA JUMPI PUSH1 0x40 MLOAD PUSH32 0x8C379A000000000000000000000000000000000000000000000000000000000 DUP2 MSTORE PUSH1 0x4 ADD PUSH2 0x1CC1 SWAP1 PUSH2 0x2D68 JUMP JUMPDEST PUSH1 0x40 MLOAD DUP1 SWAP2 SUB SWAP1 REVERT JUMPDEST DUP3 PUSH1 0x0 DUP1 PUSH1 0x0 DUP4 PUSH12 0xFFFFFFFFFFFFFFFFFFFFFFFF NOT AND PUSH12 0xFFFFFFFFFFFFFFFFFFFFFFFF NOT AND DUP2 MSTORE PUSH1 0x20 ADD SWAP1 DUP2 MSTORE PUSH1 0x20 ADD PUSH1 0x0 KECCAK256 SWAP1 POP TIMESTAMP DUP2 PUSH1 0x3 ADD SLOAD GT ISZERO PUSH2 0x1D46 JUMPI PUSH1 0x40 MLOAD PUSH32 0x8C379A000000000000000000000000000000000000000000000000000000000 DUP2 MSTORE PUSH1 0x4 ADD PUSH2 0x1D3D SWAP1 PUSH2 0x34C3 JUMP JUMPDEST PUSH1 0x40 MLOAD DUP1 SWAP2 SUB SWAP1 REVERT JUMPDEST PUSH1 0x0 DUP1 PUSH1 0x0 DUP8 PUSH12 0xFFFFFFFFFFFFFFFFFFFFFFFF NOT AND PUSH12 0xFFFFFFFFFFFFFFFFFFFFFFFF NOT AND DUP2 MSTORE PUSH1 0x20 ADD SWAP1 DUP2 MSTORE PUSH1 0x20 ADD PUSH1 0x0 KECCAK256 SWAP1 POP PUSH1 0x0 JUMPDEST DUP2 PUSH1 0x5 ADD PUSH1 0x0 ADD DUP1 SLOAD SWAP1 POP DUP2 LT ISZERO PUSH2 0x1EC5 JUMPI PUSH1 0x0 DUP3 PUSH1 0x5 ADD PUSH1 0x0 ADD DUP3 DUP2 SLOAD DUP2 LT PUSH2 0x1DAA JUMPI PUSH2 0x1DA9 PUSH2 0x2E86 JUMP JUMPDEST JUMPDEST SWAP1 PUSH1 0x0 MSTORE PUSH1 0x20 PUSH1 0x0 KECCAK256 ADD PUSH1 0x0 SWAP1 SLOAD SWAP1 PUSH2 0x100 EXP SWAP1 DIV PUSH20 0xFFFFFFFFFFFFFFFFFFFFFFFFFFFFFFFFFFFFFFFF AND SWAP1 POP DUP3 PUSH1 0x5 ADD PUSH1 0x2 ADD PUSH1 0x0 DUP3 PUSH20 0xFFFFFFFFFFFFFFFFFFFFFFFFFFFFFFFFFFFFFFFF AND PUSH20 0xFFFFFFFFFFFFFFFFFFFFFFFFFFFFFFFFFFFFFFFF AND DUP2 MSTORE PUSH1 0x20 ADD SWAP1 DUP2 MSTORE PUSH1 0x20 ADD PUSH1 0x0 KECCAK256 PUSH1 0x2 ADD PUSH1 0x0 SWAP1 SLOAD SWAP1 PUSH2 0x100 EXP SWAP1 DIV PUSH1 0xFF AND ISZERO PUSH2 0x1EB1 JUMPI PUSH1 0x3 DUP4 PUSH1 0x4 ADD PUSH1 0x0 PUSH2 0x100 EXP DUP2 SLOAD DUP2 PUSH1 0xFF MUL NOT AND SWAP1 DUP4 PUSH1 0x5 DUP2 GT ISZERO PUSH2 0x1E59 JUMPI PUSH2 0x1E58 PUSH2 0x2638 JUMP JUMPDEST JUMPDEST MUL OR SWAP1 SSTORE POP DUP8 PUSH12 0xFFFFFFFFFFFFFFFFFFFFFFFF NOT AND PUSH32 0x8830263DC9EB7A76282516D1E28FF3C44BD7F8816DF11F0FC373B2D5916F676A TIMESTAMP PUSH1 0x40 MLOAD PUSH2 0x1E9D SWAP2 SWAP1 PUSH2 0x3132 JUMP JUMPDEST PUSH1 0x40 MLOAD DUP1 SWAP2 SUB SWAP1 LOG2 PUSH1 0x0 SWAP7 POP POP POP POP PUSH2 0x214C JUMP JUMPDEST POP DUP1 DUP1 PUSH2 0x1EBD SWAP1 PUSH2 0x2EE4 JUMP JUMPDEST SWAP2 POP POP PUSH2 0x1D7D JUMP JUMPDEST POP PUSH1 0x0 PUSH1 0x1 SWAP1 POP PUSH1 0x0 JUMPDEST DUP3 PUSH1 0x8 ADD PUSH1 0x1 ADD DUP1 SLOAD SWAP1 POP DUP2 LT ISZERO PUSH2 0x204B JUMPI PUSH1 0x0 DUP4 PUSH1 0x8 ADD PUSH1 0x1 ADD DUP3 DUP2 SLOAD DUP2 LT PUSH2 0x1EFC JUMPI PUSH2 0x1EFB PUSH2 0x2E86 JUMP JUMPDEST JUMPDEST SWAP1 PUSH1 0x0 MSTORE PUSH1 0x20 PUSH1 0x0 KECCAK256 ADD PUSH1 0x0 SWAP1 SLOAD SWAP1 PUSH2 0x100 EXP SWAP1 DIV PUSH20 0xFFFFFFFFFFFFFFFFFFFFFFFFFFFFFFFFFFFFFFFF AND SWAP1 POP PUSH1 0x0 DUP5 PUSH1 0x8 ADD PUSH1 0x2 ADD PUSH1 0x0 DUP4 PUSH20 0xFFFFFFFFFFFFFFFFFFFFFFFFFFFFFFFFFFFFFFFF AND PUSH20 0xFFFFFFFFFFFFFFFFFFFFFFFFFFFFFFFFFFFFFFFF AND DUP2 MSTORE PUSH1 0x20 ADD SWAP1 DUP2 MSTORE PUSH1 0x20 ADD PUSH1 0x0 KECCAK256 PUSH1 0x40 MLOAD DUP1 PUSH1 0x40 ADD PUSH1 0x40 MSTORE SWAP1 DUP2 PUSH1 0x0 DUP3 ADD PUSH1 0x0 SWAP1 SLOAD SWAP1 PUSH2 0x100 EXP SWAP1 DIV PUSH1 0xFF AND PUSH1 0x2 DUP2 GT ISZERO PUSH2 0x1F9F JUMPI PUSH2 0x1F9E PUSH2 0x2638 JUMP JUMPDEST JUMPDEST PUSH1 0x2 DUP2 GT ISZERO PUSH2 0x1FB1 JUMPI PUSH2 0x1FB0 PUSH2 0x2638 JUMP JUMPDEST JUMPDEST DUP2 MSTORE PUSH1 0x20 ADD PUSH1 0x1 DUP3 ADD SLOAD DUP2 MSTORE POP POP SWAP1 POP PUSH1 0x0 PUSH1 0x2 DUP2 GT ISZERO PUSH2 0x1FD5 JUMPI PUSH2 0x1FD4 PUSH2 0x2638 JUMP JUMPDEST JUMPDEST DUP2 PUSH1 0x0 ADD MLOAD PUSH1 0x2 DUP2 GT ISZERO PUSH2 0x1FEC JUMPI PUSH2 0x1FEB PUSH2 0x2638 JUMP JUMPDEST JUMPDEST SUB PUSH2 0x1FFC JUMPI PUSH1 0x0 SWAP4 POP POP POP PUSH2 0x204B JUMP JUMPDEST PUSH1 0x2 DUP1 DUP2 GT ISZERO PUSH2 0x200F JUMPI PUSH2 0x200E PUSH2 0x2638 JUMP JUMPDEST JUMPDEST DUP2 PUSH1 0x0 ADD MLOAD PUSH1 0x2 DUP2 GT ISZERO PUSH2 0x2026 JUMPI PUSH2 0x2025 PUSH2 0x2638 JUMP JUMPDEST JUMPDEST SUB PUSH2 0x2036 JUMPI PUSH1 0x0 SWAP4 POP POP POP PUSH2 0x204B JUMP JUMPDEST POP POP DUP1 DUP1 PUSH2 0x2043 SWAP1 PUSH2 0x2EE4 JUMP JUMPDEST SWAP2 POP POP PUSH2 0x1ECF JUMP JUMPDEST POP DUP1 ISZERO PUSH2 0x20D1 JUMPI PUSH1 0x2 DUP3 PUSH1 0x4 ADD PUSH1 0x0 PUSH2 0x100 EXP DUP2 SLOAD DUP2 PUSH1 0xFF MUL NOT AND SWAP1 DUP4 PUSH1 0x5 DUP2 GT ISZERO PUSH2 0x207A JUMPI PUSH2 0x2079 PUSH2 0x2638 JUMP JUMPDEST JUMPDEST MUL OR SWAP1 SSTORE POP DUP7 PUSH12 0xFFFFFFFFFFFFFFFFFFFFFFFF NOT AND PUSH32 0x4C77C074636916BA616FC170D1CFD236A80AA7FD95CC2C3E701B8AE835C84C61 TIMESTAMP PUSH1 0x40 MLOAD PUSH2 0x20BE SWAP2 SWAP1 PUSH2 0x3132 JUMP JUMPDEST PUSH1 0x40 MLOAD DUP1 SWAP2 SUB SWAP1 LOG2 PUSH1 0x1 SWAP6 POP POP POP PUSH2 0x214C JUMP JUMPDEST PUSH1 0x3 DUP3 PUSH1 0x4 ADD PUSH1 0x0 PUSH2 0x100 EXP DUP2 SLOAD DUP2 PUSH1 0xFF MUL NOT AND SWAP1 DUP4 PUSH1 0x5 DUP2 GT ISZERO PUSH2 0x20F9 JUMPI PUSH2 0x20F8 PUSH2 0x2638 JUMP JUMPDEST JUMPDEST MUL OR SWAP1 SSTORE POP DUP7 PUSH12 0xFFFFFFFFFFFFFFFFFFFFFFFF NOT AND PUSH32 0x8830263DC9EB7A76282516D1E28FF3C44BD7F8816DF11F0FC373B2D5916F676A TIMESTAMP PUSH1 0x40 MLOAD PUSH2 0x213D SWAP2 SWAP1 PUSH2 0x3132 JUMP JUMPDEST PUSH1 0x40 MLOAD DUP1 SWAP2 SUB SWAP1 LOG2 PUSH1 0x0 SWAP6 POP POP POP JUMPDEST POP POP POP SWAP2 SWAP1 POP JUMP JUMPDEST PUSH1 0x0 DUP1 PUSH1 0x0 SWAP1 POP JUMPDEST DUP3 MLOAD DUP2 LT ISZERO PUSH2 0x21CF JUMPI DUP4 PUSH20 0xFFFFFFFFFFFFFFFFFFFFFFFFFFFFFFFFFFFFFFFF AND DUP4 DUP3 DUP2 MLOAD DUP2 LT PUSH2 0x218F JUMPI PUSH2 0x218E PUSH2 0x2E86 JUMP JUMPDEST JUMPDEST PUSH1 0x20 MUL PUSH1 0x20 ADD ADD MLOAD PUSH20 0xFFFFFFFFFFFFFFFFFFFFFFFFFFFFFFFFFFFFFFFF AND SUB PUSH2 0x21BC JUMPI PUSH1 0x1 SWAP2 POP POP PUSH2 0x21D5 JUMP JUMPDEST DUP1 DUP1 PUSH2 0x21C7 SWAP1 PUSH2 0x2EE4 JUMP JUMPDEST SWAP2 POP POP PUSH2 0x215C JUMP JUMPDEST POP PUSH1 0x0 SWAP1 POP JUMPDEST SWAP3 SWAP2 POP POP JUMP JUMPDEST PUSH1 0x0 DUP1 PUSH1 0x0 DUP6 PUSH12 0xFFFFFFFFFFFFFFFFFFFFFFFF NOT AND PUSH12 0xFFFFFFFFFFFFFFFFFFFFFFFF NOT AND DUP2 MSTORE PUSH1 0x20 ADD SWAP1 DUP2 MSTORE PUSH1 0x20 ADD PUSH1 0x0 KECCAK256 SWAP1 POP PUSH2 0x2218 DUP4 PUSH2 0x246F JUMP JUMPDEST DUP2 PUSH1 0x5 ADD PUSH1 0x2 ADD PUSH1 0x0 CALLER PUSH20 0xFFFFFFFFFFFFFFFFFFFFFFFFFFFFFFFFFFFFFFFF AND PUSH20 0xFFFFFFFFFFFFFFFFFFFFFFFFFFFFFFFFFFFFFFFF AND DUP2 MSTORE PUSH1 0x20 ADD SWAP1 DUP2 MSTORE PUSH1 0x20 ADD PUSH1 0x0 KECCAK256 PUSH1 0x0 ADD PUSH1 0x0 PUSH2 0x100 EXP DUP2 SLOAD DUP2 PUSH1 0xFF MUL NOT AND SWAP1 DUP4 PUSH1 0x2 DUP2 GT ISZERO PUSH2 0x2281 JUMPI PUSH2 0x2280 PUSH2 0x2638 JUMP JUMPDEST JUMPDEST MUL OR SWAP1 SSTORE POP DUP2 DUP2 PUSH1 0x5 ADD PUSH1 0x2 ADD PUSH1 0x0 CALLER PUSH20 0xFFFFFFFFFFFFFFFFFFFFFFFFFFFFFFFFFFFFFFFF AND PUSH20 0xFFFFFFFFFFFFFFFFFFFFFFFFFFFFFFFFFFFFFFFF AND DUP2 MSTORE PUSH1 0x20 ADD SWAP1 DUP2 MSTORE PUSH1 0x20 ADD PUSH1 0x0 KECCAK256 PUSH1 0x1 ADD DUP2 SWAP1 SSTORE POP DUP4 PUSH12 0xFFFFFFFFFFFFFFFFFFFFFFFF NOT AND PUSH32 0x3BF7725866E22778BCD42055F5C7F4FDB0EC72E5D2B1BFF4B578342D1D3088B7 CALLER DUP6 DUP6 TIMESTAMP PUSH1 0x40 MLOAD PUSH2 0x2317 SWAP5 SWAP4 SWAP3 SWAP2 SWAP1 PUSH2 0x34E3 JUMP JUMPDEST PUSH1 0x40 MLOAD DUP1 SWAP2 SUB SWAP1 LOG2 POP POP POP POP JUMP JUMPDEST PUSH1 0x0 DUP1 PUSH1 0x0 DUP6 PUSH12 0xFFFFFFFFFFFFFFFFFFFFFFFF NOT AND PUSH12 0xFFFFFFFFFFFFFFFFFFFFFFFF NOT AND DUP2 MSTORE PUSH1 0x20 ADD SWAP1 DUP2 MSTORE PUSH1 0x20 ADD PUSH1 0x0 KECCAK256 SWAP1 POP PUSH2 0x2362 DUP4 PUSH2 0x246F JUMP JUMPDEST DUP2 PUSH1 0x8 ADD PUSH1 0x2 ADD PUSH1 0x0 CALLER PUSH20 0xFFFFFFFFFFFFFFFFFFFFFFFFFFFFFFFFFFFFFFFF AND PUSH20 0xFFFFFFFFFFFFFFFFFFFFFFFFFFFFFFFFFFFFFFFF AND DUP2 MSTORE PUSH1 0x20 ADD SWAP1 DUP2 MSTORE PUSH1 0x20 ADD PUSH1 0x0 KECCAK256 PUSH1 0x0 ADD PUSH1 0x0 PUSH2 0x100 EXP DUP2 SLOAD DUP2 PUSH1 0xFF MUL NOT AND SWAP1 DUP4 PUSH1 0x2 DUP2 GT ISZERO PUSH2 0x23CB JUMPI PUSH2 0x23CA PUSH2 0x2638 JUMP JUMPDEST JUMPDEST MUL OR SWAP1 SSTORE POP DUP2 DUP2 PUSH1 0x8 ADD PUSH1 0x2 ADD PUSH1 0x0 CALLER PUSH20 0xFFFFFFFFFFFFFFFFFFFFFFFFFFFFFFFFFFFFFFFF AND PUSH20 0xFFFFFFFFFFFFFFFFFFFFFFFFFFFFFFFFFFFFFFFF AND DUP2 MSTORE PUSH1 0x20 ADD SWAP1 DUP2 MSTORE PUSH1 0x20 ADD PUSH1 0x0 KECCAK256 PUSH1 0x1 ADD DUP2 SWAP1 SSTORE POP DUP4 PUSH12 0xFFFFFFFFFFFFFFFFFFFFFFFF NOT AND PUSH32 0x828C749E75F8C8F1D13E798FC61D5900900240CC3148C060EEE94212EC78F16B CALLER DUP6 DUP6 TIMESTAMP PUSH1 0x40 MLOAD PUSH2 0x2461 SWAP5 SWAP4 SWAP3 SWAP2 SWAP1 PUSH2 0x34E3 JUMP JUMPDEST PUSH1 0x40 MLOAD DUP1 SWAP2 SUB SWAP1 LOG2 POP POP POP POP JUMP JUMPDEST PUSH1 0x0 DUP2 PUSH2 0x247D JUMPI PUSH1 0x2 PUSH2 0x2480 JUMP JUMPDEST PUSH1 0x1 JUMPDEST SWAP1 POP SWAP2 SWAP1 POP JUMP JUMPDEST DUP3 DUP1 SLOAD DUP3 DUP3 SSTORE SWAP1 PUSH1 0x0 MSTORE PUSH1 0x20 PUSH1 0x0 KECCAK256 SWAP1 DUP2 ADD SWAP3 DUP3 ISZERO PUSH2 0x2500 JUMPI SWAP2 PUSH1 0x20 MUL DUP3 ADD JUMPDEST DUP3 DUP2 GT ISZERO PUSH2 0x24FF JUMPI DUP3 MLOAD DUP3 PUSH1 0x0 PUSH2 0x100 EXP DUP2 SLOAD DUP2 PUSH20 0xFFFFFFFFFFFFFFFFFFFFFFFFFFFFFFFFFFFFFFFF MUL NOT AND SWAP1 DUP4 PUSH20 0xFFFFFFFFFFFFFFFFFFFFFFFFFFFFFFFFFFFFFFFF AND MUL OR SWAP1 SSTORE POP SWAP2 PUSH1 0x20 ADD SWAP2 SWAP1 PUSH1 0x1 ADD SWAP1 PUSH2 0x24A7 JUMP JUMPDEST JUMPDEST POP SWAP1 POP PUSH2 0x250D SWAP2 SWAP1 PUSH2 0x2511 JUMP JUMPDEST POP SWAP1 JUMP JUMPDEST JUMPDEST DUP1 DUP3 GT ISZERO PUSH2 0x252A JUMPI PUSH1 0x0 DUP2 PUSH1 0x0 SWAP1 SSTORE POP PUSH1 0x1 ADD PUSH2 0x2512 JUMP JUMPDEST POP SWAP1 JUMP JUMPDEST PUSH1 0x0 PUSH1 0x40 MLOAD SWAP1 POP SWAP1 JUMP JUMPDEST PUSH1 0x0 DUP1 REVERT JUMPDEST PUSH1 0x0 DUP1 REVERT JUMPDEST PUSH1 0x0 PUSH32 0xFFFFFFFFFFFFFFFFFFFFFFFFFFFFFFFFFFFFFFFF000000000000000000000000 DUP3 AND SWAP1 POP SWAP2 SWAP1 POP JUMP JUMPDEST PUSH2 0x2577 DUP2 PUSH2 0x2542 JUMP JUMPDEST DUP2 EQ PUSH2 0x2582 JUMPI PUSH1 0x0 DUP1 REVERT JUMPDEST POP JUMP JUMPDEST PUSH1 0x0 DUP2 CALLDATALOAD SWAP1 POP PUSH2 0x2594 DUP2 PUSH2 0x256E JUMP JUMPDEST SWAP3 SWAP2 POP POP JUMP JUMPDEST PUSH1 0x0 PUSH20 0xFFFFFFFFFFFFFFFFFFFFFFFFFFFFFFFFFFFFFFFF DUP3 AND SWAP1 POP SWAP2 SWAP1 POP JUMP JUMPDEST PUSH1 0x0 PUSH2 0x25C5 DUP3 PUSH2 0x259A JUMP JUMPDEST SWAP1 POP SWAP2 SWAP1 POP JUMP JUMPDEST PUSH2 0x25D5 DUP2 PUSH2 0x25BA JUMP JUMPDEST DUP2 EQ PUSH2 0x25E0 JUMPI PUSH1 0x0 DUP1 REVERT JUMPDEST POP JUMP JUMPDEST PUSH1 0x0 DUP2 CALLDATALOAD SWAP1 POP PUSH2 0x25F2 DUP2 PUSH2 0x25CC JUMP JUMPDEST SWAP3 SWAP2 POP POP JUMP JUMPDEST PUSH1 0x0 DUP1 PUSH1 0x40 DUP4 DUP6 SUB SLT ISZERO PUSH2 0x260F JUMPI PUSH2 0x260E PUSH2 0x2538 JUMP JUMPDEST JUMPDEST PUSH1 0x0 PUSH2 0x261D DUP6 DUP3 DUP7 ADD PUSH2 0x2585 JUMP JUMPDEST SWAP3 POP POP PUSH1 0x20 PUSH2 0x262E DUP6 DUP3 DUP7 ADD PUSH2 0x25E3 JUMP JUMPDEST SWAP2 POP POP SWAP3 POP SWAP3 SWAP1 POP JUMP JUMPDEST PUSH32 0x4E487B7100000000000000000000000000000000000000000000000000000000 PUSH1 0x0 MSTORE PUSH1 0x21 PUSH1 0x4 MSTORE PUSH1 0x24 PUSH1 0x0 REVERT JUMPDEST PUSH1 0x3 DUP2 LT PUSH2 0x2678 JUMPI PUSH2 0x2677 PUSH2 0x2638 JUMP JUMPDEST JUMPDEST POP JUMP JUMPDEST PUSH1 0x0 DUP2 SWAP1 POP PUSH2 0x2689 DUP3 PUSH2 0x2667 JUMP JUMPDEST SWAP2 SWAP1 POP JUMP JUMPDEST PUSH1 0x0 PUSH2 0x2699 DUP3 PUSH2 0x267B JUMP JUMPDEST SWAP1 POP SWAP2 SWAP1 POP JUMP JUMPDEST PUSH2 0x26A9 DUP2 PUSH2 0x268E JUMP JUMPDEST DUP3 MSTORE POP POP JUMP JUMPDEST PUSH1 0x0 DUP2 SWAP1 POP SWAP2 SWAP1 POP JUMP JUMPDEST PUSH2 0x26C2 DUP2 PUSH2 0x26AF JUMP JUMPDEST DUP3 MSTORE POP POP JUMP JUMPDEST PUSH1 0x0 DUP2 ISZERO ISZERO SWAP1 POP SWAP2 SWAP1 POP JUMP JUMPDEST PUSH2 0x26DD DUP2 PUSH2 0x26C8 JUMP JUMPDEST DUP3 MSTORE POP POP JUMP JUMPDEST PUSH1 0x0 PUSH1 0x60 DUP3 ADD SWAP1 POP PUSH2 0x26F8 PUSH1 0x0 DUP4 ADD DUP7 PUSH2 0x26A0 JUMP JUMPDEST PUSH2 0x2705 PUSH1 0x20 DUP4 ADD DUP6 PUSH2 0x26B9 JUMP JUMPDEST PUSH2 0x2712 PUSH1 0x40 DUP4 ADD DUP5 PUSH2 0x26D4 JUMP JUMPDEST SWAP5 SWAP4 POP POP POP POP JUMP JUMPDEST PUSH1 0x0 DUP1 REVERT JUMPDEST PUSH1 0x0 PUSH1 0x1F NOT PUSH1 0x1F DUP4 ADD AND SWAP1 POP SWAP2 SWAP1 POP JUMP JUMPDEST PUSH32 0x4E487B7100000000000000000000000000000000000000000000000000000000 PUSH1 0x0 MSTORE PUSH1 0x41 PUSH1 0x4 MSTORE PUSH1 0x24 PUSH1 0x0 REVERT JUMPDEST PUSH2 0x2768 DUP3 PUSH2 0x271F JUMP JUMPDEST DUP2 ADD DUP2 DUP2 LT PUSH8 0xFFFFFFFFFFFFFFFF DUP3 GT OR ISZERO PUSH2 0x2787 JUMPI PUSH2 0x2786 PUSH2 0x2730 JUMP JUMPDEST JUMPDEST DUP1 PUSH1 0x40 MSTORE POP POP POP JUMP JUMPDEST PUSH1 0x0 PUSH2 0x279A PUSH2 0x252E JUMP JUMPDEST SWAP1 POP PUSH2 0x27A6 DUP3 DUP3 PUSH2 0x275F JUMP JUMPDEST SWAP2 SWAP1 POP JUMP JUMPDEST PUSH1 0x0 PUSH8 0xFFFFFFFFFFFFFFFF DUP3 GT ISZERO PUSH2 0x27C6 JUMPI PUSH2 0x27C5 PUSH2 0x2730 JUMP JUMPDEST JUMPDEST PUSH1 0x20 DUP3 MUL SWAP1 POP PUSH1 0x20 DUP2 ADD SWAP1 POP SWAP2 SWAP1 POP JUMP JUMPDEST PUSH1 0x0 DUP1 REVERT JUMPDEST PUSH1 0x0 PUSH2 0x27EF PUSH2 0x27EA DUP5 PUSH2 0x27AB JUMP JUMPDEST PUSH2 0x2790 JUMP JUMPDEST SWAP1 POP DUP1 DUP4 DUP3 MSTORE PUSH1 0x20 DUP3 ADD SWAP1 POP PUSH1 0x20 DUP5 MUL DUP4 ADD DUP6 DUP2 GT ISZERO PUSH2 0x2812 JUMPI PUSH2 0x2811 PUSH2 0x27D7 JUMP JUMPDEST JUMPDEST DUP4 JUMPDEST DUP2 DUP2 LT ISZERO PUSH2 0x283B JUMPI DUP1 PUSH2 0x2827 DUP9 DUP3 PUSH2 0x25E3 JUMP JUMPDEST DUP5 MSTORE PUSH1 0x20 DUP5 ADD SWAP4 POP POP PUSH1 0x20 DUP2 ADD SWAP1 POP PUSH2 0x2814 JUMP JUMPDEST POP POP POP SWAP4 SWAP3 POP POP POP JUMP JUMPDEST PUSH1 0x0 DUP3 PUSH1 0x1F DUP4 ADD SLT PUSH2 0x285A JUMPI PUSH2 0x2859 PUSH2 0x271A JUMP JUMPDEST JUMPDEST DUP2 CALLDATALOAD PUSH2 0x286A DUP5 DUP3 PUSH1 0x20 DUP7 ADD PUSH2 0x27DC JUMP JUMPDEST SWAP2 POP POP SWAP3 SWAP2 POP POP JUMP JUMPDEST PUSH1 0x0 DUP1 PUSH1 0x40 DUP4 DUP6 SUB SLT ISZERO PUSH2 0x288A JUMPI PUSH2 0x2889 PUSH2 0x2538 JUMP JUMPDEST JUMPDEST PUSH1 0x0 PUSH2 0x2898 DUP6 DUP3 DUP7 ADD PUSH2 0x2585 JUMP JUMPDEST SWAP3 POP POP PUSH1 0x20 DUP4 ADD CALLDATALOAD PUSH8 0xFFFFFFFFFFFFFFFF DUP2 GT ISZERO PUSH2 0x28B9 JUMPI PUSH2 0x28B8 PUSH2 0x253D JUMP JUMPDEST JUMPDEST PUSH2 0x28C5 DUP6 DUP3 DUP7 ADD PUSH2 0x2845 JUMP JUMPDEST SWAP2 POP POP SWAP3 POP SWAP3 SWAP1 POP JUMP JUMPDEST PUSH1 0x0 DUP2 SWAP1 POP SWAP2 SWAP1 POP JUMP JUMPDEST PUSH2 0x28E2 DUP2 PUSH2 0x28CF JUMP JUMPDEST DUP2 EQ PUSH2 0x28ED JUMPI PUSH1 0x0 DUP1 REVERT JUMPDEST POP JUMP JUMPDEST PUSH1 0x0 DUP2 CALLDATALOAD SWAP1 POP PUSH2 0x28FF DUP2 PUSH2 0x28D9 JUMP JUMPDEST SWAP3 SWAP2 POP POP JUMP JUMPDEST PUSH1 0x0 DUP1 PUSH1 0x40 DUP4 DUP6 SUB SLT ISZERO PUSH2 0x291C JUMPI PUSH2 0x291B PUSH2 0x2538 JUMP JUMPDEST JUMPDEST PUSH1 0x0 PUSH2 0x292A DUP6 DUP3 DUP7 ADD PUSH2 0x2585 JUMP JUMPDEST SWAP3 POP POP PUSH1 0x20 PUSH2 0x293B DUP6 DUP3 DUP7 ADD PUSH2 0x28F0 JUMP JUMPDEST SWAP2 POP POP SWAP3 POP SWAP3 SWAP1 POP JUMP JUMPDEST PUSH1 0x0 PUSH1 0x20 DUP3 DUP5 SUB SLT ISZERO PUSH2 0x295B JUMPI PUSH2 0x295A PUSH2 0x2538 JUMP JUMPDEST JUMPDEST PUSH1 0x0 PUSH2 0x2969 DUP5 DUP3 DUP6 ADD PUSH2 0x2585 JUMP JUMPDEST SWAP2 POP POP SWAP3 SWAP2 POP POP JUMP JUMPDEST PUSH2 0x297B DUP2 PUSH2 0x2542 JUMP JUMPDEST DUP3 MSTORE POP POP JUMP JUMPDEST PUSH2 0x298A DUP2 PUSH2 0x25BA JUMP JUMPDEST DUP3 MSTORE POP POP JUMP JUMPDEST PUSH2 0x2999 DUP2 PUSH2 0x28CF JUMP JUMPDEST DUP3 MSTORE POP POP JUMP JUMPDEST PUSH1 0x6 DUP2 LT PUSH2 0x29B0 JUMPI PUSH2 0x29AF PUSH2 0x2638 JUMP JUMPDEST JUMPDEST POP JUMP JUMPDEST PUSH1 0x0 DUP2 SWAP1 POP PUSH2 0x29C1 DUP3 PUSH2 0x299F JUMP JUMPDEST SWAP2 SWAP1 POP JUMP JUMPDEST PUSH1 0x0 PUSH2 0x29D1 DUP3 PUSH2 0x29B3 JUMP JUMPDEST SWAP1 POP SWAP2 SWAP1 POP JUMP JUMPDEST PUSH2 0x29E1 DUP2 PUSH2 0x29C6 JUMP JUMPDEST DUP3 MSTORE POP POP JUMP JUMPDEST PUSH1 0x0 PUSH1 0xE0 DUP3 ADD SWAP1 POP PUSH2 0x29FC PUSH1 0x0 DUP4 ADD DUP11 PUSH2 0x2972 JUMP JUMPDEST PUSH2 0x2A09 PUSH1 0x20 DUP4 ADD DUP10 PUSH2 0x2981 JUMP JUMPDEST PUSH2 0x2A16 PUSH1 0x40 DUP4 ADD DUP9 PUSH2 0x2990 JUMP JUMPDEST PUSH2 0x2A23 PUSH1 0x60 DUP4 ADD DUP8 PUSH2 0x26B9 JUMP JUMPDEST PUSH2 0x2A30 PUSH1 0x80 DUP4 ADD DUP7 PUSH2 0x29D8 JUMP JUMPDEST PUSH2 0x2A3D PUSH1 0xA0 DUP4 ADD DUP6 PUSH2 0x2990 JUMP JUMPDEST PUSH2 0x2A4A PUSH1 0xC0 DUP4 ADD DUP5 PUSH2 0x2990 JUMP JUMPDEST SWAP9 SWAP8 POP POP POP POP POP POP POP POP JUMP JUMPDEST PUSH2 0x2A5F DUP2 PUSH2 0x26C8 JUMP JUMPDEST DUP2 EQ PUSH2 0x2A6A JUMPI PUSH1 0x0 DUP1 REVERT JUMPDEST POP JUMP JUMPDEST PUSH1 0x0 DUP2 CALLDATALOAD SWAP1 POP PUSH2 0x2A7C DUP2 PUSH2 0x2A56 JUMP JUMPDEST SWAP3 SWAP2 POP POP JUMP JUMPDEST PUSH2 0x2A8B DUP2 PUSH2 0x26AF JUMP JUMPDEST DUP2 EQ PUSH2 0x2A96 JUMPI PUSH1 0x0 DUP1 REVERT JUMPDEST POP JUMP JUMPDEST PUSH1 0x0 DUP2 CALLDATALOAD SWAP1 POP PUSH2 0x2AA8 DUP2 PUSH2 0x2A82 JUMP JUMPDEST SWAP3 SWAP2 POP POP JUMP JUMPDEST PUSH1 0x0 DUP1 PUSH1 0x0 PUSH1 0x60 DUP5 DUP7 SUB SLT ISZERO PUSH2 0x2AC7 JUMPI PUSH2 0x2AC6 PUSH2 0x2538 JUMP JUMPDEST JUMPDEST PUSH1 0x0 PUSH2 0x2AD5 DUP7 DUP3 DUP8 ADD PUSH2 0x2585 JUMP JUMPDEST SWAP4 POP POP PUSH1 0x20 PUSH2 0x2AE6 DUP7 DUP3 DUP8 ADD PUSH2 0x2A6D JUMP JUMPDEST SWAP3 POP POP PUSH1 0x40 PUSH2 0x2AF7 DUP7 DUP3 DUP8 ADD PUSH2 0x2A99 JUMP JUMPDEST SWAP2 POP POP SWAP3 POP SWAP3 POP SWAP3 JUMP JUMPDEST PUSH1 0x0 PUSH1 0x40 DUP3 ADD SWAP1 POP PUSH2 0x2B16 PUSH1 0x0 DUP4 ADD DUP6 PUSH2 0x26A0 JUMP JUMPDEST PUSH2 0x2B23 PUSH1 0x20 DUP4 ADD DUP5 PUSH2 0x26B9 JUMP JUMPDEST SWAP4 SWAP3 POP POP POP JUMP JUMPDEST PUSH1 0x0 DUP2 MLOAD SWAP1 POP SWAP2 SWAP1 POP JUMP JUMPDEST PUSH1 0x0 DUP3 DUP3 MSTORE PUSH1 0x20 DUP3 ADD SWAP1 POP SWAP3 SWAP2 POP POP JUMP JUMPDEST PUSH1 0x0 DUP2 SWAP1 POP PUSH1 0x20 DUP3 ADD SWAP1 POP SWAP2 SWAP1 POP JUMP JUMPDEST PUSH2 0x2B5F DUP2 PUSH2 0x28CF JUMP JUMPDEST DUP3 MSTORE POP POP JUMP JUMPDEST PUSH2 0x2B6E DUP2 PUSH2 0x25BA JUMP JUMPDEST DUP3 MSTORE POP POP JUMP JUMPDEST PUSH1 0x60 DUP3 ADD PUSH1 0x0 DUP3 ADD MLOAD PUSH2 0x2B8A PUSH1 0x0 DUP6 ADD DUP3 PUSH2 0x2B56 JUMP JUMPDEST POP PUSH1 0x20 DUP3 ADD MLOAD PUSH2 0x2B9D PUSH1 0x20 DUP6 ADD DUP3 PUSH2 0x2B56 JUMP JUMPDEST POP PUSH1 0x40 DUP3 ADD MLOAD PUSH2 0x2BB0 PUSH1 0x40 DUP6 ADD DUP3 PUSH2 0x2B65 JUMP JUMPDEST POP POP POP POP JUMP JUMPDEST PUSH1 0x0 PUSH2 0x2BC2 DUP4 DUP4 PUSH2 0x2B74 JUMP JUMPDEST PUSH1 0x60 DUP4 ADD SWAP1 POP SWAP3 SWAP2 POP POP JUMP JUMPDEST PUSH1 0x0 PUSH1 0x20 DUP3 ADD SWAP1 POP SWAP2 SWAP1 POP JUMP JUMPDEST PUSH1 0x0 PUSH2 0x2BE6 DUP3 PUSH2 0x2B2A JUMP JUMPDEST PUSH2 0x2BF0 DUP2 DUP6 PUSH2 0x2B35 JUMP JUMPDEST SWAP4 POP PUSH2 0x2BFB DUP4 PUSH2 0x2B46 JUMP JUMPDEST DUP1 PUSH1 0x0 JUMPDEST DUP4 DUP2 LT ISZERO PUSH2 0x2C2C JUMPI DUP2 MLOAD PUSH2 0x2C13 DUP9 DUP3 PUSH2 0x2BB6 JUMP JUMPDEST SWAP8 POP PUSH2 0x2C1E DUP4 PUSH2 0x2BCE JUMP JUMPDEST SWAP3 POP POP PUSH1 0x1 DUP2 ADD SWAP1 POP PUSH2 0x2BFF JUMP JUMPDEST POP DUP6 SWAP4 POP POP POP POP SWAP3 SWAP2 POP POP JUMP JUMPDEST PUSH1 0x0 PUSH1 0x20 DUP3 ADD SWAP1 POP DUP2 DUP2 SUB PUSH1 0x0 DUP4 ADD MSTORE PUSH2 0x2C53 DUP2 DUP5 PUSH2 0x2BDB JUMP JUMPDEST SWAP1 POP SWAP3 SWAP2 POP POP JUMP JUMPDEST PUSH1 0x0 DUP1 PUSH1 0x0 PUSH1 0x60 DUP5 DUP7 SUB SLT ISZERO PUSH2 0x2C74 JUMPI PUSH2 0x2C73 PUSH2 0x2538 JUMP JUMPDEST JUMPDEST PUSH1 0x0 PUSH2 0x2C82 DUP7 DUP3 DUP8 ADD PUSH2 0x2585 JUMP JUMPDEST SWAP4 POP POP PUSH1 0x20 PUSH2 0x2C93 DUP7 DUP3 DUP8 ADD PUSH2 0x2A99 JUMP JUMPDEST SWAP3 POP POP PUSH1 0x40 DUP5 ADD CALLDATALOAD PUSH8 0xFFFFFFFFFFFFFFFF DUP2 GT ISZERO PUSH2 0x2CB4 JUMPI PUSH2 0x2CB3 PUSH2 0x253D JUMP JUMPDEST JUMPDEST PUSH2 0x2CC0 DUP7 DUP3 DUP8 ADD PUSH2 0x2845 JUMP JUMPDEST SWAP2 POP POP SWAP3 POP SWAP3 POP SWAP3 JUMP JUMPDEST PUSH1 0x0 PUSH1 0x20 DUP3 ADD SWAP1 POP PUSH2 0x2CDF PUSH1 0x0 DUP4 ADD DUP5 PUSH2 0x26D4 JUMP JUMPDEST SWAP3 SWAP2 POP POP JUMP JUMPDEST PUSH1 0x0 DUP3 DUP3 MSTORE PUSH1 0x20 DUP3 ADD SWAP1 POP SWAP3 SWAP2 POP POP JUMP JUMPDEST PUSH32 0x44726166742077697468207468697320494420646F6573206E6F742065786973 PUSH1 0x0 DUP3 ADD MSTORE PUSH32 0x7400000000000000000000000000000000000000000000000000000000000000 PUSH1 0x20 DUP3 ADD MSTORE POP JUMP JUMPDEST PUSH1 0x0 PUSH2 0x2D52 PUSH1 0x21 DUP4 PUSH2 0x2CE5 JUMP JUMPDEST SWAP2 POP PUSH2 0x2D5D DUP3 PUSH2 0x2CF6 JUMP JUMPDEST PUSH1 0x40 DUP3 ADD SWAP1 POP SWAP2 SWAP1 POP JUMP JUMPDEST PUSH1 0x0 PUSH1 0x20 DUP3 ADD SWAP1 POP DUP2 DUP2 SUB PUSH1 0x0 DUP4 ADD MSTORE PUSH2 0x2D81 DUP2 PUSH2 0x2D45 JUMP JUMPDEST SWAP1 POP SWAP2 SWAP1 POP JUMP JUMPDEST PUSH32 0x596F75206D7573742062652061204C6576656C203120617070726F7665720000 PUSH1 0x0 DUP3 ADD MSTORE POP JUMP JUMPDEST PUSH1 0x0 PUSH2 0x2DBE PUSH1 0x1E DUP4 PUSH2 0x2CE5 JUMP JUMPDEST SWAP2 POP PUSH2 0x2DC9 DUP3 PUSH2 0x2D88 JUMP JUMPDEST PUSH1 0x20 DUP3 ADD SWAP1 POP SWAP2 SWAP1 POP JUMP JUMPDEST PUSH1 0x0 PUSH1 0x20 DUP3 ADD SWAP1 POP DUP2 DUP2 SUB PUSH1 0x0 DUP4 ADD MSTORE PUSH2 0x2DED DUP2 PUSH2 0x2DB1 JUMP JUMPDEST SWAP1 POP SWAP2 SWAP1 POP JUMP JUMPDEST PUSH32 0x596F75206861766520617369676E6564206F7220596F7520686176656E277420 PUSH1 0x0 DUP3 ADD MSTORE PUSH32 0x617070726F766564000000000000000000000000000000000000000000000000 PUSH1 0x20 DUP3 ADD MSTORE POP JUMP JUMPDEST PUSH1 0x0 PUSH2 0x2E50 PUSH1 0x28 DUP4 PUSH2 0x2CE5 JUMP JUMPDEST SWAP2 POP PUSH2 0x2E5B DUP3 PUSH2 0x2DF4 JUMP JUMPDEST PUSH1 0x40 DUP3 ADD SWAP1 POP SWAP2 SWAP1 POP JUMP JUMPDEST PUSH1 0x0 PUSH1 0x20 DUP3 ADD SWAP1 POP DUP2 DUP2 SUB PUSH1 0x0 DUP4 ADD MSTORE PUSH2 0x2E7F DUP2 PUSH2 0x2E43 JUMP JUMPDEST SWAP1 POP SWAP2 SWAP1 POP JUMP JUMPDEST PUSH32 0x4E487B7100000000000000000000000000000000000000000000000000000000 PUSH1 0x0 MSTORE PUSH1 0x32 PUSH1 0x4 MSTORE PUSH1 0x24 PUSH1 0x0 REVERT JUMPDEST PUSH32 0x4E487B7100000000000000000000000000000000000000000000000000000000 PUSH1 0x0 MSTORE PUSH1 0x11 PUSH1 0x4 MSTORE PUSH1 0x24 PUSH1 0x0 REVERT JUMPDEST PUSH1 0x0 PUSH2 0x2EEF DUP3 PUSH2 0x28CF JUMP JUMPDEST SWAP2 POP PUSH32 0xFFFFFFFFFFFFFFFFFFFFFFFFFFFFFFFFFFFFFFFFFFFFFFFFFFFFFFFFFFFFFFFF DUP3 SUB PUSH2 0x2F21 JUMPI PUSH2 0x2F20 PUSH2 0x2EB5 JUMP JUMPDEST JUMPDEST PUSH1 0x1 DUP3 ADD SWAP1 POP SWAP2 SWAP1 POP JUMP JUMPDEST PUSH1 0x0 DUP2 MLOAD SWAP1 POP SWAP2 SWAP1 POP JUMP JUMPDEST PUSH1 0x0 DUP3 DUP3 MSTORE PUSH1 0x20 DUP3 ADD SWAP1 POP SWAP3 SWAP2 POP POP JUMP JUMPDEST PUSH1 0x0 DUP2 SWAP1 POP PUSH1 0x20 DUP3 ADD SWAP1 POP SWAP2 SWAP1 POP JUMP JUMPDEST PUSH1 0x0 PUSH2 0x2F64 DUP4 DUP4 PUSH2 0x2B65 JUMP JUMPDEST PUSH1 0x20 DUP4 ADD SWAP1 POP SWAP3 SWAP2 POP POP JUMP JUMPDEST PUSH1 0x0 PUSH1 0x20 DUP3 ADD SWAP1 POP SWAP2 SWAP1 POP JUMP JUMPDEST PUSH1 0x0 PUSH2 0x2F88 DUP3 PUSH2 0x2F2C JUMP JUMPDEST PUSH2 0x2F92 DUP2 DUP6 PUSH2 0x2F37 JUMP JUMPDEST SWAP4 POP PUSH2 0x2F9D DUP4 PUSH2 0x2F48 JUMP JUMPDEST DUP1 PUSH1 0x0 JUMPDEST DUP4 DUP2 LT ISZERO PUSH2 0x2FCE JUMPI DUP2 MLOAD PUSH2 0x2FB5 DUP9 DUP3 PUSH2 0x2F58 JUMP JUMPDEST SWAP8 POP PUSH2 0x2FC0 DUP4 PUSH2 0x2F70 JUMP JUMPDEST SWAP3 POP POP PUSH1 0x1 DUP2 ADD SWAP1 POP PUSH2 0x2FA1 JUMP JUMPDEST POP DUP6 SWAP4 POP POP POP POP SWAP3 SWAP2 POP POP JUMP JUMPDEST PUSH1 0x0 PUSH1 0x40 DUP3 ADD SWAP1 POP DUP2 DUP2 SUB PUSH1 0x0 DUP4 ADD MSTORE PUSH2 0x2FF5 DUP2 DUP6 PUSH2 0x2F7D JUMP JUMPDEST SWAP1 POP PUSH2 0x3004 PUSH1 0x20 DUP4 ADD DUP5 PUSH2 0x2990 JUMP JUMPDEST SWAP4 SWAP3 POP POP POP JUMP JUMPDEST PUSH32 0x4472616674206D75737420626520696E20612077726F6E672073746174757300 PUSH1 0x0 DUP3 ADD MSTORE POP JUMP JUMPDEST PUSH1 0x0 PUSH2 0x3041 PUSH1 0x1F DUP4 PUSH2 0x2CE5 JUMP JUMPDEST SWAP2 POP PUSH2 0x304C DUP3 PUSH2 0x300B JUMP JUMPDEST PUSH1 0x20 DUP3 ADD SWAP1 POP SWAP2 SWAP1 POP JUMP JUMPDEST PUSH1 0x0 PUSH1 0x20 DUP3 ADD SWAP1 POP DUP2 DUP2 SUB PUSH1 0x0 DUP4 ADD MSTORE PUSH2 0x3070 DUP2 PUSH2 0x3034 JUMP JUMPDEST SWAP1 POP SWAP2 SWAP1 POP JUMP JUMPDEST PUSH1 0x0 PUSH1 0x40 DUP3 ADD SWAP1 POP PUSH2 0x308C PUSH1 0x0 DUP4 ADD DUP6 PUSH2 0x2990 JUMP JUMPDEST PUSH2 0x3099 PUSH1 0x20 DUP4 ADD DUP5 PUSH2 0x2990 JUMP JUMPDEST SWAP4 SWAP3 POP POP POP JUMP JUMPDEST PUSH32 0x4F6E6C7920746865206F776E65722063616E20706572666F726D207468697320 PUSH1 0x0 DUP3 ADD MSTORE PUSH32 0x616374696F6E0000000000000000000000000000000000000000000000000000 PUSH1 0x20 DUP3 ADD MSTORE POP JUMP JUMPDEST PUSH1 0x0 PUSH2 0x30FC PUSH1 0x26 DUP4 PUSH2 0x2CE5 JUMP JUMPDEST SWAP2 POP PUSH2 0x3107 DUP3 PUSH2 0x30A0 JUMP JUMPDEST PUSH1 0x40 DUP3 ADD SWAP1 POP SWAP2 SWAP1 POP JUMP JUMPDEST PUSH1 0x0 PUSH1 0x20 DUP3 ADD SWAP1 POP DUP2 DUP2 SUB PUSH1 0x0 DUP4 ADD MSTORE PUSH2 0x312B DUP2 PUSH2 0x30EF JUMP JUMPDEST SWAP1 POP SWAP2 SWAP1 POP JUMP JUMPDEST PUSH1 0x0 PUSH1 0x20 DUP3 ADD SWAP1 POP PUSH2 0x3147 PUSH1 0x0 DUP4 ADD DUP5 PUSH2 0x2990 JUMP JUMPDEST SWAP3 SWAP2 POP POP JUMP JUMPDEST PUSH32 0x596F75206D757374206265206120617070726F76657200000000000000000000 PUSH1 0x0 DUP3 ADD MSTORE POP JUMP JUMPDEST PUSH1 0x0 PUSH2 0x3183 PUSH1 0x16 DUP4 PUSH2 0x2CE5 JUMP JUMPDEST SWAP2 POP PUSH2 0x318E DUP3 PUSH2 0x314D JUMP JUMPDEST PUSH1 0x20 DUP3 ADD SWAP1 POP SWAP2 SWAP1 POP JUMP JUMPDEST PUSH1 0x0 PUSH1 0x20 DUP3 ADD SWAP1 POP DUP2 DUP2 SUB PUSH1 0x0 DUP4 ADD MSTORE PUSH2 0x31B2 DUP2 PUSH2 0x3176 JUMP JUMPDEST SWAP1 POP SWAP2 SWAP1 POP JUMP JUMPDEST PUSH32 0x447261667420697320616C726561647920706173742074686520646561646C69 PUSH1 0x0 DUP3 ADD MSTORE PUSH32 0x6E65000000000000000000000000000000000000000000000000000000000000 PUSH1 0x20 DUP3 ADD MSTORE POP JUMP JUMPDEST PUSH1 0x0 PUSH2 0x3215 PUSH1 0x22 DUP4 PUSH2 0x2CE5 JUMP JUMPDEST SWAP2 POP PUSH2 0x3220 DUP3 PUSH2 0x31B9 JUMP JUMPDEST PUSH1 0x40 DUP3 ADD SWAP1 POP SWAP2 SWAP1 POP JUMP JUMPDEST PUSH1 0x0 PUSH1 0x20 DUP3 ADD SWAP1 POP DUP2 DUP2 SUB PUSH1 0x0 DUP4 ADD MSTORE PUSH2 0x3244 DUP2 PUSH2 0x3208 JUMP JUMPDEST SWAP1 POP SWAP2 SWAP1 POP JUMP JUMPDEST PUSH32 0x646561646C696E65446179206E6F742066697400000000000000000000000000 PUSH1 0x0 DUP3 ADD MSTORE POP JUMP JUMPDEST PUSH1 0x0 PUSH2 0x3281 PUSH1 0x13 DUP4 PUSH2 0x2CE5 JUMP JUMPDEST SWAP2 POP PUSH2 0x328C DUP3 PUSH2 0x324B JUMP JUMPDEST PUSH1 0x20 DUP3 ADD SWAP1 POP SWAP2 SWAP1 POP JUMP JUMPDEST PUSH1 0x0 PUSH1 0x20 DUP3 ADD SWAP1 POP DUP2 DUP2 SUB PUSH1 0x0 DUP4 ADD MSTORE PUSH2 0x32B0 DUP2 PUSH2 0x3274 JUMP JUMPDEST SWAP1 POP SWAP2 SWAP1 POP JUMP JUMPDEST PUSH32 0x43616E206E6F742066696E697368206472616674000000000000000000000000 PUSH1 0x0 DUP3 ADD MSTORE POP JUMP JUMPDEST PUSH1 0x0 PUSH2 0x32ED PUSH1 0x14 DUP4 PUSH2 0x2CE5 JUMP JUMPDEST SWAP2 POP PUSH2 0x32F8 DUP3 PUSH2 0x32B7 JUMP JUMPDEST PUSH1 0x20 DUP3 ADD SWAP1 POP SWAP2 SWAP1 POP JUMP JUMPDEST PUSH1 0x0 PUSH1 0x20 DUP3 ADD SWAP1 POP DUP2 DUP2 SUB PUSH1 0x0 DUP4 ADD MSTORE PUSH2 0x331C DUP2 PUSH2 0x32E0 JUMP JUMPDEST SWAP1 POP SWAP2 SWAP1 POP JUMP JUMPDEST PUSH32 0x44726166742077697468207468697320494420646F6573206578697374000000 PUSH1 0x0 DUP3 ADD MSTORE POP JUMP JUMPDEST PUSH1 0x0 PUSH2 0x3359 PUSH1 0x1D DUP4 PUSH2 0x2CE5 JUMP JUMPDEST SWAP2 POP PUSH2 0x3364 DUP3 PUSH2 0x3323 JUMP JUMPDEST PUSH1 0x20 DUP3 ADD SWAP1 POP SWAP2 SWAP1 POP JUMP JUMPDEST PUSH1 0x0 PUSH1 0x20 DUP3 ADD SWAP1 POP DUP2 DUP2 SUB PUSH1 0x0 DUP4 ADD MSTORE PUSH2 0x3388 DUP2 PUSH2 0x334C JUMP JUMPDEST SWAP1 POP SWAP2 SWAP1 POP JUMP JUMPDEST PUSH32 0x546865206D696E69756D204C656E677468206F66204C6576656C203120417070 PUSH1 0x0 DUP3 ADD MSTORE PUSH32 0x726F76657273206D757374206265203100000000000000000000000000000000 PUSH1 0x20 DUP3 ADD MSTORE POP JUMP JUMPDEST PUSH1 0x0 PUSH2 0x33EB PUSH1 0x30 DUP4 PUSH2 0x2CE5 JUMP JUMPDEST SWAP2 POP PUSH2 0x33F6 DUP3 PUSH2 0x338F JUMP JUMPDEST PUSH1 0x40 DUP3 ADD SWAP1 POP SWAP2 SWAP1 POP JUMP JUMPDEST PUSH1 0x0 PUSH1 0x20 DUP3 ADD SWAP1 POP DUP2 DUP2 SUB PUSH1 0x0 DUP4 ADD MSTORE PUSH2 0x341A DUP2 PUSH2 0x33DE JUMP JUMPDEST SWAP1 POP SWAP2 SWAP1 POP JUMP JUMPDEST PUSH1 0x0 PUSH1 0x40 DUP3 ADD SWAP1 POP PUSH2 0x3436 PUSH1 0x0 DUP4 ADD DUP6 PUSH2 0x26B9 JUMP JUMPDEST DUP2 DUP2 SUB PUSH1 0x20 DUP4 ADD MSTORE PUSH2 0x3448 DUP2 DUP5 PUSH2 0x2F7D JUMP JUMPDEST SWAP1 POP SWAP4 SWAP3 POP POP POP JUMP JUMPDEST PUSH32 0x4472616674206973207374696C6C2077697468696E2074686520646561646C69 PUSH1 0x0 DUP3 ADD MSTORE PUSH32 0x6E65000000000000000000000000000000000000000000000000000000000000 PUSH1 0x20 DUP3 ADD MSTORE POP JUMP JUMPDEST PUSH1 0x0 PUSH2 0x34AD PUSH1 0x22 DUP4 PUSH2 0x2CE5 JUMP JUMPDEST SWAP2 POP PUSH2 0x34B8 DUP3 PUSH2 0x3451 JUMP JUMPDEST PUSH1 0x40 DUP3 ADD SWAP1 POP SWAP2 SWAP1 POP JUMP JUMPDEST PUSH1 0x0 PUSH1 0x20 DUP3 ADD SWAP1 POP DUP2 DUP2 SUB PUSH1 0x0 DUP4 ADD MSTORE PUSH2 0x34DC DUP2 PUSH2 0x34A0 JUMP JUMPDEST SWAP1 POP SWAP2 SWAP1 POP JUMP JUMPDEST PUSH1 0x0 PUSH1 0x80 DUP3 ADD SWAP1 POP PUSH2 0x34F8 PUSH1 0x0 DUP4 ADD DUP8 PUSH2 0x2981 JUMP JUMPDEST PUSH2 0x3505 PUSH1 0x20 DUP4 ADD DUP7 PUSH2 0x26D4 JUMP JUMPDEST PUSH2 0x3512 PUSH1 0x40 DUP4 ADD DUP6 PUSH2 0x26B9 JUMP JUMPDEST PUSH2 0x351F PUSH1 0x60 DUP4 ADD DUP5 PUSH2 0x2990 JUMP JUMPDEST SWAP6 SWAP5 POP POP POP POP POP JUMP INVALID LOG2 PUSH5 0x6970667358 0x22 SLT KECCAK256 DUP16 0xEB MLOAD 0xD8 MULMOD 0xA6 OR 0xC CALLDATACOPY 0xC0 0xA6 CALLER 0xDE 0x26 0xD4 XOR PUSH14 0x17145C47B5370FC794A4EEF7DA81 PUSH15 0x64736F6C6343000812003300000000 "
		},
		"gasEstimates": {
			"creation": {
				"codeDepositCost": "2732400",
				"executionCost": "2969",
				"totalCost": "2735369"
			},
			"external": {
				"assignLevel2Approver(bytes20,address[])": "infinite",
				"checkApprove(bytes20)": "44567",
				"comment(bytes20,uint256)": "infinite",
				"createDraft(bytes20,bytes32,address[])": "infinite",
				"decideDraft(bytes20,bool,bytes32)": "infinite",
				"finish(bytes20)": "33173",
				"getComments(bytes20,address)": "infinite",
				"getDraft(bytes20)": "infinite",
				"getLevel1ApproverStatus(bytes20,address)": "10055",
				"getLevel2ApproverStatus(bytes20,address)": "7817",
				"publish(bytes20)": "31058",
				"submitDraft(bytes20,uint256)": "infinite"
			},
			"internal": {
				"convertDecide(bool)": "56",
				"decideLevel1Approver(bytes20,bool,bytes32)": "infinite",
				"decideLevel2Approver(bytes20,bool,bytes32)": "infinite",
				"isInArray(address,address[] memory)": "infinite"
			}
		},
		"methodIdentifiers": {
			"assignLevel2Approver(bytes20,address[])": "1d2324bd",
			"checkApprove(bytes20)": "fb62ffd0",
			"comment(bytes20,uint256)": "2b736e93",
			"createDraft(bytes20,bytes32,address[])": "e8628843",
			"decideDraft(bytes20,bool,bytes32)": "513999d4",
			"finish(bytes20)": "e19aafb6",
			"getComments(bytes20,address)": "a89e3edf",
			"getDraft(bytes20)": "43dea409",
			"getLevel1ApproverStatus(bytes20,address)": "05f2e76d",
			"getLevel2ApproverStatus(bytes20,address)": "8f3aee62",
			"publish(bytes20)": "37e723ee",
			"submitDraft(bytes20,uint256)": "7eb583cd"
		}
	},
	"abi": [
		{
			"anonymous": false,
			"inputs": [
				{
					"indexed": true,
					"internalType": "bytes20",
					"name": "id",
					"type": "bytes20"
				},
				{
					"indexed": true,
					"internalType": "address",
					"name": "commenter",
					"type": "address"
				},
				{
					"indexed": false,
					"internalType": "uint256",
					"name": "contentHashed",
					"type": "uint256"
				},
				{
					"indexed": false,
					"internalType": "uint256",
					"name": "atTime",
					"type": "uint256"
				}
			],
			"name": "CommentLeft",
			"type": "event"
		},
		{
			"anonymous": false,
			"inputs": [
				{
					"indexed": true,
					"internalType": "bytes20",
					"name": "id",
					"type": "bytes20"
				},
				{
					"indexed": false,
					"internalType": "uint256",
					"name": "atTime",
					"type": "uint256"
				}
			],
			"name": "DraftApproved",
			"type": "event"
		},
		{
			"anonymous": false,
			"inputs": [
				{
					"indexed": true,
					"internalType": "bytes20",
					"name": "id",
					"type": "bytes20"
				},
				{
					"indexed": true,
					"internalType": "address",
					"name": "owner",
					"type": "address"
				},
				{
					"indexed": false,
					"internalType": "bytes32",
					"name": "content_hashed",
					"type": "bytes32"
				},
				{
					"indexed": true,
					"internalType": "uint256",
					"name": "atTime",
					"type": "uint256"
				},
				{
					"indexed": false,
					"internalType": "address[]",
					"name": "level1Approvers",
					"type": "address[]"
				}
			],
			"name": "DraftCreated",
			"type": "event"
		},
		{
			"anonymous": false,
			"inputs": [
				{
					"indexed": true,
					"internalType": "bytes20",
					"name": "id",
					"type": "bytes20"
				},
				{
					"indexed": false,
					"internalType": "uint256",
					"name": "atTime",
					"type": "uint256"
				}
			],
			"name": "DraftFinished",
			"type": "event"
		},
		{
			"anonymous": false,
			"inputs": [
				{
					"indexed": true,
					"internalType": "bytes20",
					"name": "id",
					"type": "bytes20"
				},
				{
					"indexed": false,
					"internalType": "uint256",
					"name": "atTime",
					"type": "uint256"
				}
			],
			"name": "DraftPublished",
			"type": "event"
		},
		{
			"anonymous": false,
			"inputs": [
				{
					"indexed": true,
					"internalType": "bytes20",
					"name": "id",
					"type": "bytes20"
				},
				{
					"indexed": false,
					"internalType": "uint256",
					"name": "atTime",
					"type": "uint256"
				}
			],
			"name": "DraftRejected",
			"type": "event"
		},
		{
			"anonymous": false,
			"inputs": [
				{
					"indexed": true,
					"internalType": "bytes20",
					"name": "id",
					"type": "bytes20"
				},
				{
					"indexed": true,
					"internalType": "address",
					"name": "owner",
					"type": "address"
				},
				{
					"indexed": false,
					"internalType": "uint256",
					"name": "atTime",
					"type": "uint256"
				}
			],
			"name": "DraftSubmitted",
			"type": "event"
		},
		{
			"anonymous": false,
			"inputs": [
				{
					"indexed": true,
					"internalType": "bytes20",
					"name": "id",
					"type": "bytes20"
				},
				{
					"indexed": false,
					"internalType": "address",
					"name": "approver",
					"type": "address"
				},
				{
					"indexed": false,
					"internalType": "bool",
					"name": "decision",
					"type": "bool"
				},
				{
					"indexed": false,
					"internalType": "bytes32",
					"name": "commentHashed",
					"type": "bytes32"
				},
				{
					"indexed": false,
					"internalType": "uint256",
					"name": "atTime",
					"type": "uint256"
				}
			],
			"name": "Level1ApproverDecision",
			"type": "event"
		},
		{
			"anonymous": false,
			"inputs": [
				{
					"indexed": true,
					"internalType": "bytes20",
					"name": "id",
					"type": "bytes20"
				},
				{
					"indexed": false,
					"internalType": "address",
					"name": "approver",
					"type": "address"
				},
				{
					"indexed": false,
					"internalType": "bool",
					"name": "decision",
					"type": "bool"
				},
				{
					"indexed": false,
					"internalType": "bytes32",
					"name": "commentHashed",
					"type": "bytes32"
				},
				{
					"indexed": false,
					"internalType": "uint256",
					"name": "atTime",
					"type": "uint256"
				}
			],
			"name": "Level2ApproverDecision",
			"type": "event"
		},
		{
			"anonymous": false,
			"inputs": [
				{
					"indexed": true,
					"internalType": "bytes20",
					"name": "id",
					"type": "bytes20"
				},
				{
					"indexed": false,
					"internalType": "address[]",
					"name": "level2Approvers",
					"type": "address[]"
				},
				{
					"indexed": false,
					"internalType": "uint256",
					"name": "atTime",
					"type": "uint256"
				}
			],
			"name": "Level2ApproversAssigned",
			"type": "event"
		},
		{
			"inputs": [
				{
					"internalType": "bytes20",
					"name": "_id",
					"type": "bytes20"
				},
				{
					"internalType": "address[]",
					"name": "level2Approvers",
					"type": "address[]"
				}
			],
			"name": "assignLevel2Approver",
			"outputs": [],
			"stateMutability": "nonpayable",
			"type": "function"
		},
		{
			"inputs": [
				{
					"internalType": "bytes20",
					"name": "_id",
					"type": "bytes20"
				}
			],
			"name": "checkApprove",
			"outputs": [
				{
					"internalType": "bool",
					"name": "",
					"type": "bool"
				}
			],
			"stateMutability": "nonpayable",
			"type": "function"
		},
		{
			"inputs": [
				{
					"internalType": "bytes20",
					"name": "_id",
					"type": "bytes20"
				},
				{
					"internalType": "uint256",
					"name": "_contentHashed",
					"type": "uint256"
				}
			],
			"name": "comment",
			"outputs": [],
			"stateMutability": "nonpayable",
			"type": "function"
		},
		{
			"inputs": [
				{
					"internalType": "bytes20",
					"name": "_id",
					"type": "bytes20"
				},
				{
					"internalType": "bytes32",
					"name": "_contentHashed",
					"type": "bytes32"
				},
				{
					"internalType": "address[]",
					"name": "_level1Approvers",
					"type": "address[]"
				}
			],
			"name": "createDraft",
			"outputs": [],
			"stateMutability": "nonpayable",
			"type": "function"
		},
		{
			"inputs": [
				{
					"internalType": "bytes20",
					"name": "_id",
					"type": "bytes20"
				},
				{
					"internalType": "bool",
					"name": "decide",
					"type": "bool"
				},
				{
					"internalType": "bytes32",
					"name": "comment_hashed",
					"type": "bytes32"
				}
			],
			"name": "decideDraft",
			"outputs": [],
			"stateMutability": "nonpayable",
			"type": "function"
		},
		{
			"inputs": [
				{
					"internalType": "bytes20",
					"name": "id",
					"type": "bytes20"
				}
			],
			"name": "finish",
			"outputs": [],
			"stateMutability": "nonpayable",
			"type": "function"
		},
		{
			"inputs": [
				{
					"internalType": "bytes20",
					"name": "_id",
					"type": "bytes20"
				},
				{
					"internalType": "address",
					"name": "commenter",
					"type": "address"
				}
			],
			"name": "getComments",
			"outputs": [
				{
					"components": [
						{
							"internalType": "uint256",
							"name": "content_hashed",
							"type": "uint256"
						},
						{
							"internalType": "uint256",
							"name": "commentDay",
							"type": "uint256"
						},
						{
							"internalType": "address",
							"name": "commentOwner",
							"type": "address"
						}
					],
					"internalType": "struct Electron.Comment[]",
					"name": "",
					"type": "tuple[]"
				}
			],
			"stateMutability": "view",
			"type": "function"
		},
		{
			"inputs": [
				{
					"internalType": "bytes20",
					"name": "_id",
					"type": "bytes20"
				}
			],
			"name": "getDraft",
			"outputs": [
				{
					"internalType": "bytes20",
					"name": "id",
					"type": "bytes20"
				},
				{
					"internalType": "address",
					"name": "owner",
					"type": "address"
				},
				{
					"internalType": "uint256",
					"name": "deadline",
					"type": "uint256"
				},
				{
					"internalType": "bytes32",
					"name": "content_hashed",
					"type": "bytes32"
				},
				{
					"internalType": "enum Electron.DraftStatus",
					"name": "status",
					"type": "uint8"
				},
				{
					"internalType": "uint256",
					"name": "totalLevel1Approvers",
					"type": "uint256"
				},
				{
					"internalType": "uint256",
					"name": "totalLevel2Approvers",
					"type": "uint256"
				}
			],
			"stateMutability": "view",
			"type": "function"
		},
		{
			"inputs": [
				{
					"internalType": "bytes20",
					"name": "_id",
					"type": "bytes20"
				},
				{
					"internalType": "address",
					"name": "approver",
					"type": "address"
				}
			],
			"name": "getLevel1ApproverStatus",
			"outputs": [
				{
					"internalType": "enum Electron.ApproverStatus",
					"name": "decision",
					"type": "uint8"
				},
				{
					"internalType": "bytes32",
					"name": "comment_hashed",
					"type": "bytes32"
				},
				{
					"internalType": "bool",
					"name": "grant",
					"type": "bool"
				}
			],
			"stateMutability": "view",
			"type": "function"
		},
		{
			"inputs": [
				{
					"internalType": "bytes20",
					"name": "_id",
					"type": "bytes20"
				},
				{
					"internalType": "address",
					"name": "approver",
					"type": "address"
				}
			],
			"name": "getLevel2ApproverStatus",
			"outputs": [
				{
					"internalType": "enum Electron.ApproverStatus",
					"name": "decision",
					"type": "uint8"
				},
				{
					"internalType": "bytes32",
					"name": "comment_hashed",
					"type": "bytes32"
				}
			],
			"stateMutability": "view",
			"type": "function"
		},
		{
			"inputs": [
				{
					"internalType": "bytes20",
					"name": "_id",
					"type": "bytes20"
				}
			],
			"name": "publish",
			"outputs": [],
			"stateMutability": "nonpayable",
			"type": "function"
		},
		{
			"inputs": [
				{
					"internalType": "bytes20",
					"name": "_id",
					"type": "bytes20"
				},
				{
					"internalType": "uint256",
					"name": "_deadlineApprove",
					"type": "uint256"
				}
			],
			"name": "submitDraft",
			"outputs": [],
			"stateMutability": "nonpayable",
			"type": "function"
		}
	]
}